{
  "contractName": "Crowdsale",
  "abi": [
    {
      "constant": true,
      "inputs": [],
      "name": "rate",
      "outputs": [
        {
          "name": "",
          "type": "uint256"
        }
      ],
      "payable": false,
      "stateMutability": "view",
      "type": "function"
    },
    {
      "constant": true,
      "inputs": [],
      "name": "endTime",
      "outputs": [
        {
          "name": "",
          "type": "uint256"
        }
      ],
      "payable": false,
      "stateMutability": "view",
      "type": "function"
    },
    {
      "constant": true,
      "inputs": [],
      "name": "weiRaised",
      "outputs": [
        {
          "name": "",
          "type": "uint256"
        }
      ],
      "payable": false,
      "stateMutability": "view",
      "type": "function"
    },
    {
      "constant": true,
      "inputs": [],
      "name": "startTime",
      "outputs": [
        {
          "name": "",
          "type": "uint256"
        }
      ],
      "payable": false,
      "stateMutability": "view",
      "type": "function"
    },
    {
      "constant": true,
      "inputs": [
        {
          "name": "",
          "type": "uint256"
        }
      ],
      "name": "tokenRewardReceivers",
      "outputs": [
        {
          "name": "",
          "type": "address"
        }
      ],
      "payable": false,
      "stateMutability": "view",
      "type": "function"
    },
    {
      "constant": true,
      "inputs": [],
      "name": "minContributionSum",
      "outputs": [
        {
          "name": "",
          "type": "uint256"
        }
      ],
      "payable": false,
      "stateMutability": "view",
      "type": "function"
    },
    {
      "inputs": [
        {
          "name": "_token",
          "type": "address"
        },
        {
          "name": "_startTime",
          "type": "uint256"
        },
        {
          "name": "_endTime",
          "type": "uint256"
        },
        {
          "name": "_rate",
          "type": "uint256"
        },
        {
          "name": "_wallet",
          "type": "address"
        }
      ],
      "payable": false,
      "stateMutability": "nonpayable",
      "type": "constructor"
    },
    {
      "payable": true,
      "stateMutability": "payable",
      "type": "fallback"
    },
    {
      "anonymous": false,
      "inputs": [
        {
          "indexed": true,
          "name": "purchaser",
          "type": "address"
        },
        {
          "indexed": true,
          "name": "beneficiary",
          "type": "address"
        },
        {
          "indexed": false,
          "name": "value",
          "type": "uint256"
        },
        {
          "indexed": false,
          "name": "amount",
          "type": "uint256"
        }
      ],
      "name": "TokenPurchase",
      "type": "event"
    },
    {
      "anonymous": false,
      "inputs": [
        {
          "indexed": true,
          "name": "wallet",
          "type": "address"
        },
        {
          "indexed": true,
          "name": "from",
          "type": "address"
        },
        {
          "indexed": true,
          "name": "to",
          "type": "address"
        },
        {
          "indexed": false,
          "name": "tokens",
          "type": "uint256"
        },
        {
          "indexed": false,
          "name": "start",
          "type": "uint256"
        },
        {
          "indexed": false,
          "name": "cliff",
          "type": "uint256"
        },
        {
          "indexed": false,
          "name": "duration",
          "type": "uint256"
        }
      ],
      "name": "Created",
      "type": "event"
    },
    {
      "constant": true,
      "inputs": [],
      "name": "getCountRewardReceivers",
      "outputs": [
        {
          "name": "count",
          "type": "uint256"
        }
      ],
      "payable": false,
      "stateMutability": "view",
      "type": "function"
    },
    {
      "constant": true,
      "inputs": [
        {
          "name": "_user",
          "type": "address"
        }
      ],
      "name": "getWallets",
      "outputs": [
        {
          "name": "",
          "type": "address"
        }
      ],
      "payable": false,
      "stateMutability": "view",
      "type": "function"
    },
    {
      "constant": false,
      "inputs": [
        {
          "name": "_owner",
          "type": "address"
        },
        {
          "name": "_tokens",
          "type": "uint256"
        },
        {
          "name": "_start",
          "type": "uint256"
        },
        {
          "name": "_cliff",
          "type": "uint256"
        },
        {
          "name": "_duration",
          "type": "uint256"
        }
      ],
      "name": "newTimeLockedWallet",
      "outputs": [
        {
          "name": "_wallet",
          "type": "address"
        }
      ],
      "payable": true,
      "stateMutability": "payable",
      "type": "function"
    },
    {
      "constant": false,
      "inputs": [
        {
          "name": "beneficiary",
          "type": "address"
        }
      ],
      "name": "buyTokens",
      "outputs": [],
      "payable": true,
      "stateMutability": "payable",
      "type": "function"
    },
    {
      "constant": true,
      "inputs": [],
      "name": "hasEnded",
      "outputs": [
        {
          "name": "",
          "type": "bool"
        }
      ],
      "payable": false,
      "stateMutability": "view",
      "type": "function"
    }
  ],
  "bytecode": "0x6080604052670d7cec8aaf8bc80060065534801561001c57600080fd5b5060405160a0806120be833981018060405281019080805190602001909291908051906020019092919080519060200190929190805190602001909291908051906020019092919050505042841015151561007657600080fd5b83831015151561008557600080fd5b60008211151561009457600080fd5b600073ffffffffffffffffffffffffffffffffffffffff168173ffffffffffffffffffffffffffffffffffffffff16141515156100d057600080fd5b84600360006101000a81548173ffffffffffffffffffffffffffffffffffffffff021916908373ffffffffffffffffffffffffffffffffffffffff16021790555083600481905550826005819055508160078190555080600960006101000a81548173ffffffffffffffffffffffffffffffffffffffff021916908373ffffffffffffffffffffffffffffffffffffffff1602179055505050505050611f438061017b6000396000f3006080604052600436106100af576000357c0100000000000000000000000000000000000000000000000000000000900463ffffffff16806312ea35fd146100d35780632c4e722e146101715780632ce37ff71461019c5780633197cbb6146101c75780634042b66f146101f2578063422c29a41461021d57806378e97925146102a0578063e0523d9a146102cb578063ec8ac4d814610338578063ecb70fb71461036e578063f3448e8e1461039d575b600654341115156100bf57600080fd5b6100c8336103c8565b6100d0610502565b50005b61012f600480360381019080803573ffffffffffffffffffffffffffffffffffffffff1690602001909291908035906020019092919080359060200190929190803590602001909291908035906020019092919050505061070b565b604051808273ffffffffffffffffffffffffffffffffffffffff1673ffffffffffffffffffffffffffffffffffffffff16815260200191505060405180910390f35b34801561017d57600080fd5b506101866109d8565b6040518082815260200191505060405180910390f35b3480156101a857600080fd5b506101b16109de565b6040518082815260200191505060405180910390f35b3480156101d357600080fd5b506101dc6109eb565b6040518082815260200191505060405180910390f35b3480156101fe57600080fd5b506102076109f1565b6040518082815260200191505060405180910390f35b34801561022957600080fd5b5061025e600480360381019080803573ffffffffffffffffffffffffffffffffffffffff1690602001909291905050506109f7565b604051808273ffffffffffffffffffffffffffffffffffffffff1673ffffffffffffffffffffffffffffffffffffffff16815260200191505060405180910390f35b3480156102ac57600080fd5b506102b5610a5f565b6040518082815260200191505060405180910390f35b3480156102d757600080fd5b506102f660048036038101908080359060200190929190505050610a65565b604051808273ffffffffffffffffffffffffffffffffffffffff1673ffffffffffffffffffffffffffffffffffffffff16815260200191505060405180910390f35b61036c600480360381019080803573ffffffffffffffffffffffffffffffffffffffff1690602001909291905050506103c8565b005b34801561037a57600080fd5b50610383610aa3565b604051808215151515815260200191505060405180910390f35b3480156103a957600080fd5b506103b2610aaf565b6040518082815260200191505060405180910390f35b60008060008060008073ffffffffffffffffffffffffffffffffffffffff168673ffffffffffffffffffffffffffffffffffffffff161415151561040b57600080fd5b610413610ab5565b151561041e57600080fd5b34945061043f3361043a60075488610ae890919063ffffffff16565b610b23565b935061045685600854610e1890919063ffffffff16565b60088190555042925061047663016923ef84610e1890919063ffffffff16565b91506301e1853e905061048c868585858561070b565b508573ffffffffffffffffffffffffffffffffffffffff163373ffffffffffffffffffffffffffffffffffffffff167f623b3804fa71d67900d064613da8f94b9617215ee90799290593e1745087ad188787604051808381526020018281526020019250505060405180910390a3505050505050565b600080600090505b6105126109de565b81101561070357426001600060028481548110151561052d57fe5b9060005260206000200160009054906101000a900473ffffffffffffffffffffffffffffffffffffffff1673ffffffffffffffffffffffffffffffffffffffff1673ffffffffffffffffffffffffffffffffffffffff1681526020019081526020016000206000015410156106f6576000806002838154811015156105ae57fe5b9060005260206000200160009054906101000a900473ffffffffffffffffffffffffffffffffffffffff1673ffffffffffffffffffffffffffffffffffffffff1673ffffffffffffffffffffffffffffffffffffffff16815260200190815260200160002060009054906101000a900473ffffffffffffffffffffffffffffffffffffffff1673ffffffffffffffffffffffffffffffffffffffff166108fc6001600060028581548110151561066057fe5b9060005260206000200160009054906101000a900473ffffffffffffffffffffffffffffffffffffffff1673ffffffffffffffffffffffffffffffffffffffff1673ffffffffffffffffffffffffffffffffffffffff168152602001908152602001600020600101549081150290604051600060405180830381858888f193505050501580156106f4573d6000803e3d6000fd5b505b808060010191505061050a565b600191505090565b60003386858585600061071c610e72565b808773ffffffffffffffffffffffffffffffffffffffff1673ffffffffffffffffffffffffffffffffffffffff1681526020018673ffffffffffffffffffffffffffffffffffffffff1673ffffffffffffffffffffffffffffffffffffffff168152602001858152602001848152602001838152602001821515151581526020019650505050505050604051809103906000f0801580156107c1573d6000803e3d6000fd5b5090508573ffffffffffffffffffffffffffffffffffffffff163373ffffffffffffffffffffffffffffffffffffffff1614151561087757806000808873ffffffffffffffffffffffffffffffffffffffff1673ffffffffffffffffffffffffffffffffffffffff16815260200190815260200160002060006101000a81548173ffffffffffffffffffffffffffffffffffffffff021916908373ffffffffffffffffffffffffffffffffffffffff1602179055505b8073ffffffffffffffffffffffffffffffffffffffff166108fc869081150290604051600060405180830381858888f193505050501580156108bd573d6000803e3d6000fd5b50806000803373ffffffffffffffffffffffffffffffffffffffff1673ffffffffffffffffffffffffffffffffffffffff16815260200190815260200160002060006101000a81548173ffffffffffffffffffffffffffffffffffffffff021916908373ffffffffffffffffffffffffffffffffffffffff1602179055508573ffffffffffffffffffffffffffffffffffffffff163373ffffffffffffffffffffffffffffffffffffffff168273ffffffffffffffffffffffffffffffffffffffff167fe9149e2e36741aa7dd8613a68b375a095b59199199aafe3590af8db7c387d956888888886040518085815260200184815260200183815260200182815260200194505050505060405180910390a495945050505050565b60075481565b6000600280549050905090565b60055481565b60085481565b60008060008373ffffffffffffffffffffffffffffffffffffffff1673ffffffffffffffffffffffffffffffffffffffff16815260200190815260200160002060009054906101000a900473ffffffffffffffffffffffffffffffffffffffff169050919050565b60045481565b600281815481101515610a7457fe5b906000526020600020016000915054906101000a900473ffffffffffffffffffffffffffffffffffffffff1681565b60006005544211905090565b60065481565b60008060006004544210158015610ace57506005544211155b915060003414159050818015610ae15750805b9250505090565b6000806000841415610afd5760009150610b1c565b8284029050828482811515610b0e57fe5b04141515610b1857fe5b8091505b5092915050565b6000610b2d610e82565b670d7cec8aaf8bc80083118015610b4c5750680fce65296d695bc00083105b15610b6357610b5e8360056003610e36565b830191505b680fce65296d695bc00083118015610b835750681a57fdd16554c5800083105b15610b9a57610b9583600a6003610e36565b830191505b681a57fdd16554c5800083118015610bba57506834affbfdbdba05400083105b15610bd157610bcc83600f6003610e36565b830191505b6834affbfdbdba05400083118015610bf1575068695ff8566e8484c00083105b15610cfb57610c038360146003610e36565b83019150610c24600754670de0b6b3a7640000610ae890919063ffffffff16565b8160200181815250506301e1853e420181600001818152505060028490806001815401808255809150509060018203906000526020600020016000909192909190916101000a81548173ffffffffffffffffffffffffffffffffffffffff021916908373ffffffffffffffffffffffffffffffffffffffff1602179055505080600160008673ffffffffffffffffffffffffffffffffffffffff1673ffffffffffffffffffffffffffffffffffffffff16815260200190815260200160002060008201518160000155602082015181600101559050505b68695ff8566e8484c000831115610e1157610d1983601e6003610e36565b83019150610d3a600754671bc16d674ec80000610ae890919063ffffffff16565b8160200181815250506301e1853e420181600001818152505060028490806001815401808255809150509060018203906000526020600020016000909192909190916101000a81548173ffffffffffffffffffffffffffffffffffffffff021916908373ffffffffffffffffffffffffffffffffffffffff1602179055505080600160008673ffffffffffffffffffffffffffffffffffffffff1673ffffffffffffffffffffffffffffffffffffffff16815260200190815260200160002060008201518160000155602082015181600101559050505b5092915050565b6000808284019050838110151515610e2c57fe5b8091505092915050565b600080600060018401600a0a86029150600a600586606485811515610e5757fe5b040201811515610e6357fe5b04905080925050509392505050565b60405161107b80610e9d83390190565b6040805190810160405280600081526020016000815250905600608060405234801561001057600080fd5b5060405160c08061107b833981018060405281019080805190602001909291908051906020019092919080519060200190929190805190602001909291908051906020019092919080519060200190929190505050336000806101000a81548173ffffffffffffffffffffffffffffffffffffffff021916908373ffffffffffffffffffffffffffffffffffffffff160217905550600073ffffffffffffffffffffffffffffffffffffffff168573ffffffffffffffffffffffffffffffffffffffff16141515156100e157600080fd5b8183111515156100f057600080fd5b85600160006101000a81548173ffffffffffffffffffffffffffffffffffffffff021916908373ffffffffffffffffffffffffffffffffffffffff16021790555084600260006101000a81548173ffffffffffffffffffffffffffffffffffffffff021916908373ffffffffffffffffffffffffffffffffffffffff16021790555080600660006101000a81548160ff021916908315150217905550816005819055506101b383856101cb64010000000002610cf8179091906401000000009004565b600381905550836004819055505050505050506101e9565b60008082840190508381101515156101df57fe5b8091505092915050565b610e83806101f86000396000f3006080604052600436106100c5576000357c0100000000000000000000000000000000000000000000000000000000900463ffffffff16806302d05d3f146101155780630fb5a6b41461016c57806313d033c0146101975780631726cbc8146101c25780631916558714610219578063384711cc1461025c57806374a8f103146102b3578063872a7810146102f65780638da5cb5b146103255780639852595c1461037c578063be9a6555146103d3578063f2fde38b146103fe578063fa01dc0614610441575b3373ffffffffffffffffffffffffffffffffffffffff167f88a5966d370b9919b20f3e2c13ff65706f196a4e32cc2c12bf57088f88525874346040518082815260200191505060405180910390a2005b34801561012157600080fd5b5061012a61049c565b604051808273ffffffffffffffffffffffffffffffffffffffff1673ffffffffffffffffffffffffffffffffffffffff16815260200191505060405180910390f35b34801561017857600080fd5b506101816104c2565b6040518082815260200191505060405180910390f35b3480156101a357600080fd5b506101ac6104c8565b6040518082815260200191505060405180910390f35b3480156101ce57600080fd5b50610203600480360381019080803573ffffffffffffffffffffffffffffffffffffffff1690602001909291905050506104ce565b6040518082815260200191505060405180910390f35b34801561022557600080fd5b5061025a600480360381019080803573ffffffffffffffffffffffffffffffffffffffff169060200190929190505050610531565b005b34801561026857600080fd5b5061029d600480360381019080803573ffffffffffffffffffffffffffffffffffffffff16906020019092919050505061066a565b6040518082815260200191505060405180910390f35b3480156102bf57600080fd5b506102f4600480360381019080803573ffffffffffffffffffffffffffffffffffffffff16906020019092919050505061086e565b005b34801561030257600080fd5b5061030b610b12565b604051808215151515815260200191505060405180910390f35b34801561033157600080fd5b5061033a610b25565b604051808273ffffffffffffffffffffffffffffffffffffffff1673ffffffffffffffffffffffffffffffffffffffff16815260200191505060405180910390f35b34801561038857600080fd5b506103bd600480360381019080803573ffffffffffffffffffffffffffffffffffffffff169060200190929190505050610b4b565b6040518082815260200191505060405180910390f35b3480156103df57600080fd5b506103e8610b63565b6040518082815260200191505060405180910390f35b34801561040a57600080fd5b5061043f600480360381019080803573ffffffffffffffffffffffffffffffffffffffff169060200190929190505050610b69565b005b34801561044d57600080fd5b50610482600480360381019080803573ffffffffffffffffffffffffffffffffffffffff169060200190929190505050610cbf565b604051808215151515815260200191505060405180910390f35b600160009054906101000a900473ffffffffffffffffffffffffffffffffffffffff1681565b60055481565b60035481565b600061052a600760008473ffffffffffffffffffffffffffffffffffffffff1673ffffffffffffffffffffffffffffffffffffffff1681526020019081526020016000205461051c8461066a565b610cdf90919063ffffffff16565b9050919050565b600061053c826104ce565b905060008111151561054d57600080fd5b61059f81600760008573ffffffffffffffffffffffffffffffffffffffff1673ffffffffffffffffffffffffffffffffffffffff16815260200190815260200160002054610cf890919063ffffffff16565b600760008473ffffffffffffffffffffffffffffffffffffffff1673ffffffffffffffffffffffffffffffffffffffff1681526020019081526020016000208190555061062f600260009054906101000a900473ffffffffffffffffffffffffffffffffffffffff16828473ffffffffffffffffffffffffffffffffffffffff16610d169092919063ffffffff16565b7ffb81f9b30d73d830c3544b34d827c08142579ee75710b490bab0b3995468c565816040518082815260200191505060405180910390a15050565b60008060008373ffffffffffffffffffffffffffffffffffffffff166370a08231306040518263ffffffff167c0100000000000000000000000000000000000000000000000000000000028152600401808273ffffffffffffffffffffffffffffffffffffffff1673ffffffffffffffffffffffffffffffffffffffff168152602001915050602060405180830381600087803b15801561070a57600080fd5b505af115801561071e573d6000803e3d6000fd5b505050506040513d602081101561073457600080fd5b81019080805190602001909291905050509150610799600760008673ffffffffffffffffffffffffffffffffffffffff1673ffffffffffffffffffffffffffffffffffffffff1681526020019081526020016000205483610cf890919063ffffffff16565b90506003544210156107ae5760009250610867565b6107c5600554600454610cf890919063ffffffff16565b4210158061081c5750600860008573ffffffffffffffffffffffffffffffffffffffff1673ffffffffffffffffffffffffffffffffffffffff16815260200190815260200160002060009054906101000a900460ff165b1561082957809250610867565b61086460055461085661084760045442610cdf90919063ffffffff16565b84610e0190919063ffffffff16565b610e3c90919063ffffffff16565b92505b5050919050565b6000806000600260009054906101000a900473ffffffffffffffffffffffffffffffffffffffff1673ffffffffffffffffffffffffffffffffffffffff163373ffffffffffffffffffffffffffffffffffffffff161415156108cf57600080fd5b600660009054906101000a900460ff1615156108ea57600080fd5b600860008573ffffffffffffffffffffffffffffffffffffffff1673ffffffffffffffffffffffffffffffffffffffff16815260200190815260200160002060009054906101000a900460ff1615151561094357600080fd5b8373ffffffffffffffffffffffffffffffffffffffff166370a08231306040518263ffffffff167c0100000000000000000000000000000000000000000000000000000000028152600401808273ffffffffffffffffffffffffffffffffffffffff1673ffffffffffffffffffffffffffffffffffffffff168152602001915050602060405180830381600087803b1580156109de57600080fd5b505af11580156109f2573d6000803e3d6000fd5b505050506040513d6020811015610a0857600080fd5b81019080805190602001909291905050509250610a24846104ce565b9150610a398284610cdf90919063ffffffff16565b90506001600860008673ffffffffffffffffffffffffffffffffffffffff1673ffffffffffffffffffffffffffffffffffffffff16815260200190815260200160002060006101000a81548160ff021916908315150217905550610ae0600260009054906101000a900473ffffffffffffffffffffffffffffffffffffffff16828673ffffffffffffffffffffffffffffffffffffffff16610d169092919063ffffffff16565b7f44825a4b2df8acb19ce4e1afba9aa850c8b65cdb7942e2078f27d0b0960efee660405160405180910390a150505050565b600660009054906101000a900460ff1681565b600260009054906101000a900473ffffffffffffffffffffffffffffffffffffffff1681565b60076020528060005260406000206000915090505481565b60045481565b600260009054906101000a900473ffffffffffffffffffffffffffffffffffffffff1673ffffffffffffffffffffffffffffffffffffffff163373ffffffffffffffffffffffffffffffffffffffff16141515610bc557600080fd5b600073ffffffffffffffffffffffffffffffffffffffff168173ffffffffffffffffffffffffffffffffffffffff1614151515610c0157600080fd5b8073ffffffffffffffffffffffffffffffffffffffff166000809054906101000a900473ffffffffffffffffffffffffffffffffffffffff1673ffffffffffffffffffffffffffffffffffffffff167f8be0079c531659141344cd1fd0a4f28419497f9722a3daafe3b4186f6b6457e060405160405180910390a3806000806101000a81548173ffffffffffffffffffffffffffffffffffffffff021916908373ffffffffffffffffffffffffffffffffffffffff16021790555050565b60086020528060005260406000206000915054906101000a900460ff1681565b6000828211151515610ced57fe5b818303905092915050565b6000808284019050838110151515610d0c57fe5b8091505092915050565b8273ffffffffffffffffffffffffffffffffffffffff1663a9059cbb83836040518363ffffffff167c0100000000000000000000000000000000000000000000000000000000028152600401808373ffffffffffffffffffffffffffffffffffffffff1673ffffffffffffffffffffffffffffffffffffffff16815260200182815260200192505050602060405180830381600087803b158015610db957600080fd5b505af1158015610dcd573d6000803e3d6000fd5b505050506040513d6020811015610de357600080fd5b81019080805190602001909291905050501515610dfc57fe5b505050565b6000806000841415610e165760009150610e35565b8284029050828482811515610e2757fe5b04141515610e3157fe5b8091505b5092915050565b6000808284811515610e4a57fe5b04905080915050929150505600a165627a7a72305820ae23a0019015047829b2cc3617db08e2f38f91bdaeec712b620627fac19addb50029a165627a7a72305820b8acc23d26439d0aa38e53aa315d043a230dc44ad4b192053a117570d566e0990029",
  "source": "pragma solidity ^0.4.24;\n\nimport \"./SafeMath.sol\";\nimport \"./IronxToken.sol\";\nimport \"./TokenVesting.sol\";\n\n\n/**\n * @title Crowdsale\n * @dev Crowdsale is a base contract for managing a token crowdsale.\n * Crowdsales have a start and end timestamps, where investors can make\n * token purchases and the crowdsale will assign them tokens based\n * on a token per ETH rate. Funds collected are forwarded to a wallet\n * as they arrive.\n */\ncontract Crowdsale {\n  using SafeMath for uint256;\n\n  struct TokenReward { \n    uint256 time;\n    uint256 reward;\n  }\n\n  mapping(address => address) wallets;\n  mapping(address => TokenReward) tokenRewards;\n  address[] public tokenRewardReceivers;\n\n  IronxToken token;\n  uint256 public startTime;\n  uint256 public endTime;\n  uint256 public minContributionSum = 971911700000000000;\n  uint256 public rate;\n  uint256 public weiRaised;\n  address wallet;\n\n  /**\n   * event for token purchase logging\n   * @param purchaser who paid for the tokens\n   * @param beneficiary who got the tokens\n   * @param value weis paid for purchase\n   * @param amount amount of tokens purchased\n   */\n  event TokenPurchase(\n    address indexed purchaser, \n    address indexed beneficiary, \n    uint256 value, \n    uint256 amount);\n\n  event Created(\n    address indexed wallet, \n    address indexed from, \n    address indexed to,\n    uint256 tokens, \n    uint256 start, \n    uint256 cliff, \n    uint256 duration);\n\n  modifier respectContribution() {\n    require(msg.value > minContributionSum);\n    _;\n  }\n\n  function getCountRewardReceivers() public constant returns(uint count) {\n    return tokenRewardReceivers.length;\n  }\n\n  function getWallets(address _user) \n    public\n    view \n    returns(address) {\n      return wallets[_user];\n  }\n\n  function newTimeLockedWallet( \n    address _owner, \n    uint256 _tokens,\n    uint256 _start, \n    uint256 _cliff, \n    uint256 _duration \n  ) \n    payable\n    public\n    returns(address _wallet) \n  {\n\n      _wallet = new TokenVesting(msg.sender, _owner, _start, _cliff, _duration, false);\n\n      if (msg.sender != _owner) {\n        wallets[_owner] = _wallet;\n      }\n\n      _wallet.transfer(_tokens);\n\n      wallets[msg.sender] = _wallet;\n\n      emit Created(_wallet, msg.sender, _owner, _tokens, _start, _cliff, _duration);\n  }\n\n  constructor (\n    IronxToken _token,\n    uint256 _startTime,\n    uint256 _endTime,\n    uint256 _rate, \n    address _wallet\n  ) \n    public \n  {\n    require(_startTime >= now);\n    require(_endTime >= _startTime);\n    require(_rate > 0);\n    require(_wallet != address(0));\n\n    token = _token;\n    startTime = _startTime;\n    endTime = _endTime;\n    rate = _rate;\n    wallet = _wallet;\n  }\n\n\n\n  // fallback function can be used to buy tokens\n  function () \n    external \n    payable\n    respectContribution() \n  {\n    buyTokens(msg.sender);\n    giveReward();\n  }\n\n  function giveReward() internal returns (bool) {\n    for (uint256 i = 0; i < getCountRewardReceivers(); i++) {\n      if(tokenRewards[tokenRewardReceivers[i]].time < now) {\n        wallets[tokenRewardReceivers[i]].transfer(tokenRewards[tokenRewardReceivers[i]].reward);\n      }\n    }\n    return true;\n  }\n\n  function _establishReward(address tokenReceiver, uint256 amount) internal returns (uint256 purchasedAmount) {\n    TokenReward memory _tokenReward;\n    if (amount > 971911700000000000 && amount < 291573500000000000000) {\n        purchasedAmount = amount + SafeMath.percent(amount, 5, 3);\n    }\n    if (amount > 291573500000000000000 && amount < 485955800000000000000) {\n        purchasedAmount = amount + SafeMath.percent(amount, 10, 3);\n    }\n    if (amount > 485955800000000000000 && amount < 971911700000000000000) {\n        purchasedAmount = amount + SafeMath.percent(amount, 15, 3);\n    }\n    if (amount > 971911700000000000000 && amount < 1943823500000000000000) {\n        purchasedAmount = amount + SafeMath.percent(amount, 20, 3);\n        _tokenReward.reward = uint256(1000000000000000000).mul(rate);\n        _tokenReward.time = block.timestamp + 31556926;\n        tokenRewardReceivers.push(tokenReceiver);\n        tokenRewards[tokenReceiver] = _tokenReward;\n    }\n    if (amount > 1943823500000000000000) {\n        purchasedAmount = amount + SafeMath.percent(amount, 30, 3);\n        _tokenReward.reward = uint256(2000000000000000000).mul(rate);\n        _tokenReward.time = block.timestamp + 31556926;\n        tokenRewardReceivers.push(tokenReceiver);\n        tokenRewards[tokenReceiver] = _tokenReward;\n    }\n  }\n\n\n\n  // low level token purchase function\n  function buyTokens\n  (\n    address beneficiary\n  ) \n    public \n    payable \n  {\n    require(beneficiary != address(0));\n    require(validPurchase());\n\n    uint256 weiAmount = msg.value;\n\n    // calculate token amount to be created\n    uint256 tokens = _establishReward(msg.sender, weiAmount.mul(rate));\n\n    // update state\n    weiRaised = weiRaised.add(weiAmount);\n\n    uint256 _start = now;\n    uint256 _cliff = _start.add(uint256(23667695)); \n    uint256 _duration = 31556926;\n\n    newTimeLockedWallet(beneficiary, tokens, _start, _cliff, _duration);\n    \n    emit TokenPurchase(msg.sender, beneficiary, weiAmount, tokens);\n  }\n\n  // @return true if the transaction can buy tokens\n  function validPurchase() \n    internal \n    view \n    returns (bool) \n  {\n    bool withinPeriod = now >= startTime && now <= endTime;\n    bool nonZeroPurchase = msg.value != 0;\n    return withinPeriod && nonZeroPurchase;\n  }\n\n  // @return true if crowdsale event has ended\n  function hasEnded() \n    public \n    view \n    returns (bool) \n  {\n    return now > endTime;\n  }\n}",
  "sourcePath": "/Users/el3ktron/Desktop/test/contracts/Crowdsale.sol",
  "compiler": {
    "name": "solc",
    "version": "0.4.24+commit.e67f0147.Emscripten.clang"
  },
  "schemaVersion": "2.0.1",
  "updatedAt": "2018-07-02T20:21:55.035Z"
}