{
  "contractName": "Crowdsale",
  "abi": [
    {
      "constant": true,
      "inputs": [],
      "name": "USD_500K",
      "outputs": [
        {
          "name": "",
          "type": "uint256"
        }
      ],
      "payable": false,
      "stateMutability": "view",
      "type": "function"
    },
    {
      "constant": true,
      "inputs": [
        {
          "name": "addr",
          "type": "address"
        },
        {
          "name": "roleName",
          "type": "string"
        }
      ],
      "name": "checkRole",
      "outputs": [],
      "payable": false,
      "stateMutability": "view",
      "type": "function"
    },
    {
      "constant": true,
      "inputs": [],
      "name": "ROLE_WHITELISTED",
      "outputs": [
        {
          "name": "",
          "type": "string"
        }
      ],
      "payable": false,
      "stateMutability": "view",
      "type": "function"
    },
    {
      "constant": true,
      "inputs": [
        {
          "name": "addr",
          "type": "address"
        },
        {
          "name": "roleName",
          "type": "string"
        }
      ],
      "name": "hasRole",
      "outputs": [
        {
          "name": "",
          "type": "bool"
        }
      ],
      "payable": false,
      "stateMutability": "view",
      "type": "function"
    },
    {
      "constant": true,
      "inputs": [],
      "name": "USD_1KK",
      "outputs": [
        {
          "name": "",
          "type": "uint256"
        }
      ],
      "payable": false,
      "stateMutability": "view",
      "type": "function"
    },
    {
      "constant": false,
      "inputs": [
        {
          "name": "_operators",
          "type": "address[]"
        }
      ],
      "name": "removeAddressesFromWhitelist",
      "outputs": [],
      "payable": false,
      "stateMutability": "nonpayable",
      "type": "function"
    },
    {
      "constant": false,
      "inputs": [
        {
          "name": "_operator",
          "type": "address"
        }
      ],
      "name": "removeAddressFromWhitelist",
      "outputs": [],
      "payable": false,
      "stateMutability": "nonpayable",
      "type": "function"
    },
    {
      "constant": true,
      "inputs": [],
      "name": "rate",
      "outputs": [
        {
          "name": "",
          "type": "uint256"
        }
      ],
      "payable": false,
      "stateMutability": "view",
      "type": "function"
    },
    {
      "constant": true,
      "inputs": [
        {
          "name": "",
          "type": "address"
        }
      ],
      "name": "tokenRewards",
      "outputs": [
        {
          "name": "",
          "type": "uint256"
        }
      ],
      "payable": false,
      "stateMutability": "view",
      "type": "function"
    },
    {
      "constant": true,
      "inputs": [],
      "name": "endTime",
      "outputs": [
        {
          "name": "",
          "type": "uint256"
        }
      ],
      "payable": false,
      "stateMutability": "view",
      "type": "function"
    },
    {
      "constant": true,
      "inputs": [],
      "name": "PERIOD_9M",
      "outputs": [
        {
          "name": "",
          "type": "uint256"
        }
      ],
      "payable": false,
      "stateMutability": "view",
      "type": "function"
    },
    {
      "constant": true,
      "inputs": [],
      "name": "weiRaised",
      "outputs": [
        {
          "name": "",
          "type": "uint256"
        }
      ],
      "payable": false,
      "stateMutability": "view",
      "type": "function"
    },
    {
      "constant": true,
      "inputs": [],
      "name": "USD_250K",
      "outputs": [
        {
          "name": "",
          "type": "uint256"
        }
      ],
      "payable": false,
      "stateMutability": "view",
      "type": "function"
    },
    {
      "constant": true,
      "inputs": [],
      "name": "wallet",
      "outputs": [
        {
          "name": "",
          "type": "address"
        }
      ],
      "payable": false,
      "stateMutability": "view",
      "type": "function"
    },
    {
      "constant": false,
      "inputs": [],
      "name": "renounceOwnership",
      "outputs": [],
      "payable": false,
      "stateMutability": "nonpayable",
      "type": "function"
    },
    {
      "constant": true,
      "inputs": [
        {
          "name": "",
          "type": "address"
        }
      ],
      "name": "rewardReceivers",
      "outputs": [
        {
          "name": "time",
          "type": "uint256"
        },
        {
          "name": "reward",
          "type": "uint256"
        }
      ],
      "payable": false,
      "stateMutability": "view",
      "type": "function"
    },
    {
      "constant": true,
      "inputs": [],
      "name": "startTime",
      "outputs": [
        {
          "name": "",
          "type": "uint256"
        }
      ],
      "payable": false,
      "stateMutability": "view",
      "type": "function"
    },
    {
      "constant": false,
      "inputs": [
        {
          "name": "_operator",
          "type": "address"
        }
      ],
      "name": "addAddressToWhitelist",
      "outputs": [],
      "payable": false,
      "stateMutability": "nonpayable",
      "type": "function"
    },
    {
      "constant": true,
      "inputs": [],
      "name": "isFinalized",
      "outputs": [
        {
          "name": "",
          "type": "bool"
        }
      ],
      "payable": false,
      "stateMutability": "view",
      "type": "function"
    },
    {
      "constant": true,
      "inputs": [],
      "name": "owner",
      "outputs": [
        {
          "name": "",
          "type": "address"
        }
      ],
      "payable": false,
      "stateMutability": "view",
      "type": "function"
    },
    {
      "constant": true,
      "inputs": [],
      "name": "softCap",
      "outputs": [
        {
          "name": "",
          "type": "uint256"
        }
      ],
      "payable": false,
      "stateMutability": "view",
      "type": "function"
    },
    {
      "constant": true,
      "inputs": [],
      "name": "USD_50K",
      "outputs": [
        {
          "name": "",
          "type": "uint256"
        }
      ],
      "payable": false,
      "stateMutability": "view",
      "type": "function"
    },
    {
      "constant": true,
      "inputs": [
        {
          "name": "_operator",
          "type": "address"
        }
      ],
      "name": "whitelist",
      "outputs": [
        {
          "name": "",
          "type": "bool"
        }
      ],
      "payable": false,
      "stateMutability": "view",
      "type": "function"
    },
    {
      "constant": true,
      "inputs": [],
      "name": "USD_150K",
      "outputs": [
        {
          "name": "",
          "type": "uint256"
        }
      ],
      "payable": false,
      "stateMutability": "view",
      "type": "function"
    },
    {
      "constant": true,
      "inputs": [],
      "name": "PERIOD_3M",
      "outputs": [
        {
          "name": "",
          "type": "uint256"
        }
      ],
      "payable": false,
      "stateMutability": "view",
      "type": "function"
    },
    {
      "constant": false,
      "inputs": [
        {
          "name": "_operators",
          "type": "address[]"
        }
      ],
      "name": "addAddressesToWhitelist",
      "outputs": [],
      "payable": false,
      "stateMutability": "nonpayable",
      "type": "function"
    },
    {
      "constant": true,
      "inputs": [
        {
          "name": "",
          "type": "address"
        }
      ],
      "name": "vesting",
      "outputs": [
        {
          "name": "",
          "type": "address"
        }
      ],
      "payable": false,
      "stateMutability": "view",
      "type": "function"
    },
    {
      "constant": false,
      "inputs": [
        {
          "name": "_newOwner",
          "type": "address"
        }
      ],
      "name": "transferOwnership",
      "outputs": [],
      "payable": false,
      "stateMutability": "nonpayable",
      "type": "function"
    },
    {
      "constant": true,
      "inputs": [],
      "name": "hardCap",
      "outputs": [
        {
          "name": "",
          "type": "uint256"
        }
      ],
      "payable": false,
      "stateMutability": "view",
      "type": "function"
    },
    {
      "constant": true,
      "inputs": [],
      "name": "token",
      "outputs": [
        {
          "name": "",
          "type": "address"
        }
      ],
      "payable": false,
      "stateMutability": "view",
      "type": "function"
    },
    {
      "constant": true,
      "inputs": [],
      "name": "PERIOD_1Y",
      "outputs": [
        {
          "name": "",
          "type": "uint256"
        }
      ],
      "payable": false,
      "stateMutability": "view",
      "type": "function"
    },
    {
      "inputs": [
        {
          "name": "_rate",
          "type": "uint256"
        },
        {
          "name": "_wallet",
          "type": "address"
        },
        {
          "name": "_token",
          "type": "address"
        },
        {
          "name": "_softCap",
          "type": "uint256"
        },
        {
          "name": "_hardCap",
          "type": "uint256"
        },
        {
          "name": "_startTime",
          "type": "uint256"
        },
        {
          "name": "_endTime",
          "type": "uint256"
        }
      ],
      "payable": false,
      "stateMutability": "nonpayable",
      "type": "constructor"
    },
    {
      "payable": true,
      "stateMutability": "payable",
      "type": "fallback"
    },
    {
      "anonymous": false,
      "inputs": [
        {
          "indexed": true,
          "name": "purchaser",
          "type": "address"
        },
        {
          "indexed": true,
          "name": "beneficiary",
          "type": "address"
        },
        {
          "indexed": false,
          "name": "value",
          "type": "uint256"
        },
        {
          "indexed": false,
          "name": "amount",
          "type": "uint256"
        }
      ],
      "name": "TokenPurchase",
      "type": "event"
    },
    {
      "anonymous": false,
      "inputs": [],
      "name": "Finalized",
      "type": "event"
    },
    {
      "anonymous": false,
      "inputs": [
        {
          "indexed": false,
          "name": "beneficiary",
          "type": "address"
        },
        {
          "indexed": false,
          "name": "start",
          "type": "uint256"
        },
        {
          "indexed": false,
          "name": "cliff",
          "type": "uint256"
        },
        {
          "indexed": false,
          "name": "duration",
          "type": "uint256"
        },
        {
          "indexed": false,
          "name": "revocable",
          "type": "bool"
        }
      ],
      "name": "TimeVestingCreation",
      "type": "event"
    },
    {
      "anonymous": false,
      "inputs": [
        {
          "indexed": false,
          "name": "addr",
          "type": "address"
        },
        {
          "indexed": false,
          "name": "roleName",
          "type": "string"
        }
      ],
      "name": "RoleAdded",
      "type": "event"
    },
    {
      "anonymous": false,
      "inputs": [
        {
          "indexed": false,
          "name": "addr",
          "type": "address"
        },
        {
          "indexed": false,
          "name": "roleName",
          "type": "string"
        }
      ],
      "name": "RoleRemoved",
      "type": "event"
    },
    {
      "anonymous": false,
      "inputs": [
        {
          "indexed": true,
          "name": "previousOwner",
          "type": "address"
        }
      ],
      "name": "OwnershipRenounced",
      "type": "event"
    },
    {
      "anonymous": false,
      "inputs": [
        {
          "indexed": true,
          "name": "previousOwner",
          "type": "address"
        },
        {
          "indexed": true,
          "name": "newOwner",
          "type": "address"
        }
      ],
      "name": "OwnershipTransferred",
      "type": "event"
    },
    {
      "constant": true,
      "inputs": [],
      "name": "softCapReached",
      "outputs": [
        {
          "name": "",
          "type": "bool"
        }
      ],
      "payable": false,
      "stateMutability": "view",
      "type": "function"
    },
    {
      "constant": true,
      "inputs": [],
      "name": "hasClosed",
      "outputs": [
        {
          "name": "",
          "type": "bool"
        }
      ],
      "payable": false,
      "stateMutability": "view",
      "type": "function"
    },
    {
      "constant": false,
      "inputs": [
        {
          "name": "_beneficiary",
          "type": "address"
        },
        {
          "name": "_amount",
          "type": "uint256"
        }
      ],
      "name": "buyTokens",
      "outputs": [],
      "payable": true,
      "stateMutability": "payable",
      "type": "function"
    },
    {
      "constant": false,
      "inputs": [
        {
          "name": "_beneficiary",
          "type": "address"
        },
        {
          "name": "_tokens",
          "type": "uint256"
        },
        {
          "name": "_cliff",
          "type": "uint256"
        },
        {
          "name": "_duration",
          "type": "uint256"
        }
      ],
      "name": "createTimeBasedVesting",
      "outputs": [],
      "payable": false,
      "stateMutability": "nonpayable",
      "type": "function"
    },
    {
      "constant": false,
      "inputs": [
        {
          "name": "_receiver",
          "type": "address"
        }
      ],
      "name": "getReward",
      "outputs": [
        {
          "name": "_rewardToTransfer",
          "type": "uint256"
        }
      ],
      "payable": false,
      "stateMutability": "nonpayable",
      "type": "function"
    },
    {
      "constant": false,
      "inputs": [
        {
          "name": "_beneficiary",
          "type": "address"
        }
      ],
      "name": "releaseVestedTokens",
      "outputs": [],
      "payable": false,
      "stateMutability": "nonpayable",
      "type": "function"
    },
    {
      "constant": false,
      "inputs": [],
      "name": "finalize",
      "outputs": [],
      "payable": false,
      "stateMutability": "nonpayable",
      "type": "function"
    }
  ],
  "bytecode": "0x6080604052670d7cec8aaf8bc800600555680fce65296d695bc000600655681a57fdd16554c580006007556834affbfdbdba05400060085568695ff8566e8484c0006009556301e1853e600a5563016923ef600b556278614f600c556000600d60006101000a81548160ff0219169083151502179055503480156200008357600080fd5b5060405160e08062003a2f83398101806040528101908080519060200190929190805190602001909291908051906020019092919080519060200190929190805190602001909291908051906020019092919080519060200190929190505050336000806101000a81548173ffffffffffffffffffffffffffffffffffffffff021916908373ffffffffffffffffffffffffffffffffffffffff1602179055506000871115156200013357600080fd5b600073ffffffffffffffffffffffffffffffffffffffff168673ffffffffffffffffffffffffffffffffffffffff16141515156200017057600080fd5b600073ffffffffffffffffffffffffffffffffffffffff168573ffffffffffffffffffffffffffffffffffffffff1614151515620001ad57600080fd5b600083111515620001bd57600080fd5b600084111515620001cd57600080fd5b600082111515620001dd57600080fd5b8181111515620001ec57600080fd5b86600f8190555085600e60006101000a81548173ffffffffffffffffffffffffffffffffffffffff021916908373ffffffffffffffffffffffffffffffffffffffff16021790555084600d60016101000a81548173ffffffffffffffffffffffffffffffffffffffff021916908373ffffffffffffffffffffffffffffffffffffffff160217905550826011819055508360128190555081601381905550806014819055505050505050505061378780620002a86000396000f300608060405260043610620001ff576000357c0100000000000000000000000000000000000000000000000000000000900463ffffffff16806306aec925146200020d5780630752881a146200023b5780630988ca8c146200027d5780631515bc2b146200030957806318b919e9146200033b578063217fe6c614620003d157806322cf9a6f146200047557806324953eaa14620004a3578063286dd3f5146200050c5780632b9edee914620005525780632c4e722e146200058457806330bd3eeb14620005b25780633197cbb6146200060c57806336b6f14d146200063a5780634042b66f14620006685780634bb278f3146200069657806350c9540114620006b0578063521eb27314620006de578063715018a614620007385780637687c0e0146200075257806378e9792514620007b35780637b9417c814620007e15780638d4e408314620008275780638da5cb5b1462000859578063906a26e014620008b3578063985280a814620008e15780639a9d930f14620009455780639b19251a1462000973578063a7d656b814620009d1578063c00007b014620009ff578063ce699a411462000a59578063dc3585411462000a9f578063e2ec6ec31462000acd578063e388c4231462000b36578063f2fde38b1462000bbc578063fb86a4041462000c02578063fc0c546a1462000c30578063ff1288af1462000c8a575b6200020b333462000cb8565b005b3480156200021a57600080fd5b506200022562000dfa565b6040518082815260200191505060405180910390f35b6200027b600480360381019080803573ffffffffffffffffffffffffffffffffffffffff1690602001909291908035906020019092919050505062000cb8565b005b3480156200028a57600080fd5b5062000307600480360381019080803573ffffffffffffffffffffffffffffffffffffffff169060200190929190803590602001908201803590602001908080601f016020809104026020016040519081016040528093929190818152602001838380828437820191505050505050919291929050505062000e00565b005b3480156200031657600080fd5b506200032162000e85565b604051808215151515815260200191505060405180910390f35b3480156200034857600080fd5b506200035362000e91565b6040518080602001828103825283818151815260200191508051906020019080838360005b838110156200039557808201518184015260208101905062000378565b50505050905090810190601f168015620003c35780820380516001836020036101000a031916815260200191505b509250505060405180910390f35b348015620003de57600080fd5b506200045b600480360381019080803573ffffffffffffffffffffffffffffffffffffffff169060200190929190803590602001908201803590602001908080601f016020809104026020016040519081016040528093929190818152602001838380828437820191505050505050919291929050505062000eca565b604051808215151515815260200191505060405180910390f35b3480156200048257600080fd5b506200048d62000f55565b6040518082815260200191505060405180910390f35b348015620004b057600080fd5b506200050a6004803603810190808035906020019082018035906020019080806020026020016040519081016040528093929190818152602001838360200280828437820191505050505050919291929050505062000f5b565b005b3480156200051957600080fd5b5062000550600480360381019080803573ffffffffffffffffffffffffffffffffffffffff16906020019092919050505062000ffd565b005b3480156200055f57600080fd5b506200056a6200109d565b604051808215151515815260200191505060405180910390f35b3480156200059157600080fd5b506200059c620010ac565b6040518082815260200191505060405180910390f35b348015620005bf57600080fd5b50620005f6600480360381019080803573ffffffffffffffffffffffffffffffffffffffff169060200190929190505050620010b2565b6040518082815260200191505060405180910390f35b3480156200061957600080fd5b5062000624620010ca565b6040518082815260200191505060405180910390f35b3480156200064757600080fd5b5062000652620010d0565b6040518082815260200191505060405180910390f35b3480156200067557600080fd5b5062000680620010d6565b6040518082815260200191505060405180910390f35b348015620006a357600080fd5b50620006ae620010dc565b005b348015620006bd57600080fd5b50620006c8620011be565b6040518082815260200191505060405180910390f35b348015620006eb57600080fd5b50620006f6620011c4565b604051808273ffffffffffffffffffffffffffffffffffffffff1673ffffffffffffffffffffffffffffffffffffffff16815260200191505060405180910390f35b3480156200074557600080fd5b5062000750620011ea565b005b3480156200075f57600080fd5b5062000796600480360381019080803573ffffffffffffffffffffffffffffffffffffffff169060200190929190505050620012ed565b604051808381526020018281526020019250505060405180910390f35b348015620007c057600080fd5b50620007cb62001311565b6040518082815260200191505060405180910390f35b348015620007ee57600080fd5b5062000825600480360381019080803573ffffffffffffffffffffffffffffffffffffffff16906020019092919050505062001317565b005b3480156200083457600080fd5b506200083f620013b7565b604051808215151515815260200191505060405180910390f35b3480156200086657600080fd5b5062000871620013ca565b604051808273ffffffffffffffffffffffffffffffffffffffff1673ffffffffffffffffffffffffffffffffffffffff16815260200191505060405180910390f35b348015620008c057600080fd5b50620008cb620013ef565b6040518082815260200191505060405180910390f35b348015620008ee57600080fd5b5062000943600480360381019080803573ffffffffffffffffffffffffffffffffffffffff169060200190929190803590602001909291908035906020019092919080359060200190929190505050620013f5565b005b3480156200095257600080fd5b506200095d6200166e565b6040518082815260200191505060405180910390f35b3480156200098057600080fd5b50620009b7600480360381019080803573ffffffffffffffffffffffffffffffffffffffff16906020019092919050505062001674565b604051808215151515815260200191505060405180910390f35b348015620009de57600080fd5b50620009e9620016be565b6040518082815260200191505060405180910390f35b34801562000a0c57600080fd5b5062000a43600480360381019080803573ffffffffffffffffffffffffffffffffffffffff169060200190929190505050620016c4565b6040518082815260200191505060405180910390f35b34801562000a6657600080fd5b5062000a9d600480360381019080803573ffffffffffffffffffffffffffffffffffffffff1690602001909291905050506200187f565b005b34801562000aac57600080fd5b5062000ab762001a3d565b6040518082815260200191505060405180910390f35b34801562000ada57600080fd5b5062000b346004803603810190808035906020019082018035906020019080806020026020016040519081016040528093929190818152602001838360200280828437820191505050505050919291929050505062001a43565b005b34801562000b4357600080fd5b5062000b7a600480360381019080803573ffffffffffffffffffffffffffffffffffffffff16906020019092919050505062001ae5565b604051808273ffffffffffffffffffffffffffffffffffffffff1673ffffffffffffffffffffffffffffffffffffffff16815260200191505060405180910390f35b34801562000bc957600080fd5b5062000c00600480360381019080803573ffffffffffffffffffffffffffffffffffffffff16906020019092919050505062001b18565b005b34801562000c0f57600080fd5b5062000c1a62001b82565b6040518082815260200191505060405180910390f35b34801562000c3d57600080fd5b5062000c4862001b88565b604051808273ffffffffffffffffffffffffffffffffffffffff1673ffffffffffffffffffffffffffffffffffffffff16815260200191505060405180910390f35b34801562000c9757600080fd5b5062000ca262001bae565b6040518082815260200191505060405180910390f35b60008060115460105410151562000d37576040517f08c379a00000000000000000000000000000000000000000000000000000000081526004018080602001828103825260138152602001807f486172642063617020697320726561636865640000000000000000000000000081525060200191505060405180910390fd5b82915062000d46848362001bb4565b62000d52338362001c83565b905062000d6b8260105462001e1990919063ffffffff16565b60108190555062000d7d848262001e36565b8373ffffffffffffffffffffffffffffffffffffffff163373ffffffffffffffffffffffffffffffffffffffff167f623b3804fa71d67900d064613da8f94b9617215ee90799290593e1745087ad188484604051808381526020018281526020019250505060405180910390a362000df462001e46565b50505050565b60085481565b62000e81826001836040518082805190602001908083835b60208310151562000e3f578051825260208201915060208101905060208303925062000e18565b6001836020036101000a038019825116818451168082178552505050505050905001915050908152602001604051809103902062001eb290919063ffffffff16565b5050565b60006014544211905090565b6040805190810160405280600981526020017f77686974656c697374000000000000000000000000000000000000000000000081525081565b600062000f4d836001846040518082805190602001908083835b60208310151562000f0b578051825260208201915060208101905060208303925062000ee4565b6001836020036101000a038019825116818451168082178552505050505050905001915050908152602001604051809103902062001ece90919063ffffffff16565b905092915050565b60095481565b60008060009054906101000a900473ffffffffffffffffffffffffffffffffffffffff1673ffffffffffffffffffffffffffffffffffffffff163373ffffffffffffffffffffffffffffffffffffffff1614151562000fb957600080fd5b600090505b815181101562000ff95762000feb828281518110151562000fdb57fe5b9060200190602002015162000ffd565b808060010191505062000fbe565b5050565b6000809054906101000a900473ffffffffffffffffffffffffffffffffffffffff1673ffffffffffffffffffffffffffffffffffffffff163373ffffffffffffffffffffffffffffffffffffffff161415156200105957600080fd5b6200109a816040805190810160405280600981526020017f77686974656c697374000000000000000000000000000000000000000000000081525062001f27565b50565b60006012546010541015905090565b600f5481565b60026020528060005260406000206000915090505481565b60145481565b600b5481565b60105481565b6000809054906101000a900473ffffffffffffffffffffffffffffffffffffffff1673ffffffffffffffffffffffffffffffffffffffff163373ffffffffffffffffffffffffffffffffffffffff161415156200113857600080fd5b600d60009054906101000a900460ff161515156200115557600080fd5b6200115f62000e85565b15156200116b57600080fd5b620011756200207f565b7f6823b073d48d6e3a7d385eeb601452d680e74bb46afe3255a7d778f3a9b1768160405160405180910390a16001600d60006101000a81548160ff021916908315150217905550565b60075481565b600e60009054906101000a900473ffffffffffffffffffffffffffffffffffffffff1681565b6000809054906101000a900473ffffffffffffffffffffffffffffffffffffffff1673ffffffffffffffffffffffffffffffffffffffff163373ffffffffffffffffffffffffffffffffffffffff161415156200124657600080fd5b6000809054906101000a900473ffffffffffffffffffffffffffffffffffffffff1673ffffffffffffffffffffffffffffffffffffffff167ff8df31144d9c2f0f6b59d69b8b98abd5459d07f2742c4df920b25aae33c6482060405160405180910390a260008060006101000a81548173ffffffffffffffffffffffffffffffffffffffff021916908373ffffffffffffffffffffffffffffffffffffffff160217905550565b60046020528060005260406000206000915090508060000154908060010154905082565b60135481565b6000809054906101000a900473ffffffffffffffffffffffffffffffffffffffff1673ffffffffffffffffffffffffffffffffffffffff163373ffffffffffffffffffffffffffffffffffffffff161415156200137357600080fd5b620013b4816040805190810160405280600981526020017f77686974656c697374000000000000000000000000000000000000000000000081525062002081565b50565b600d60009054906101000a900460ff1681565b6000809054906101000a900473ffffffffffffffffffffffffffffffffffffffff1681565b60125481565b6000808573ffffffffffffffffffffffffffffffffffffffff16141515156200141d57600080fd5b6000841115156200142d57600080fd5b4290508481848460006200144062002629565b808673ffffffffffffffffffffffffffffffffffffffff1673ffffffffffffffffffffffffffffffffffffffff1681526020018581526020018481526020018381526020018215151515815260200195505050505050604051809103906000f080158015620014b3573d6000803e3d6000fd5b50600360008773ffffffffffffffffffffffffffffffffffffffff1673ffffffffffffffffffffffffffffffffffffffff16815260200190815260200160002060006101000a81548173ffffffffffffffffffffffffffffffffffffffff021916908373ffffffffffffffffffffffffffffffffffffffff160217905550620015df600360008773ffffffffffffffffffffffffffffffffffffffff1673ffffffffffffffffffffffffffffffffffffffff16815260200190815260200160002060009054906101000a900473ffffffffffffffffffffffffffffffffffffffff1685600d60019054906101000a900473ffffffffffffffffffffffffffffffffffffffff1673ffffffffffffffffffffffffffffffffffffffff16620021d99092919063ffffffff16565b7fca426ea9dab8e09f8a40658aba432007e9793fdfdc5ea039f862492e23630640858285856000604051808673ffffffffffffffffffffffffffffffffffffffff1673ffffffffffffffffffffffffffffffffffffffff168152602001858152602001848152602001838152602001821515151581526020019550505050505060405180910390a15050505050565b60055481565b6000620016b7826040805190810160405280600981526020017f77686974656c697374000000000000000000000000000000000000000000000081525062000eca565b9050919050565b60065481565b6000620016d06200263a565b6000836000600260008373ffffffffffffffffffffffffffffffffffffffff1673ffffffffffffffffffffffffffffffffffffffff168152602001908152602001600020541115156200172257600080fd5b600460008673ffffffffffffffffffffffffffffffffffffffff1673ffffffffffffffffffffffffffffffffffffffff1681526020019081526020016000206040805190810160405290816000820154815260200160018201548152505092506200179b836000015142620022cb90919063ffffffff16565b915060009350600a5482118015620017c95750620017c66002600a54620022e590919063ffffffff16565b82105b15620017d757826020015193505b620017ef6002600a54620022e590919063ffffffff16565b82118015620018145750620018116003600a54620022e590919063ffffffff16565b82105b1562001837576200183460028460200151620022e590919063ffffffff16565b93505b6200184f6003600a54620022e590919063ffffffff16565b82111562001874576200187160038460200151620022e590919063ffffffff16565b93505b839350505050919050565b6000808273ffffffffffffffffffffffffffffffffffffffff1614151515620018a757600080fd5b600360008373ffffffffffffffffffffffffffffffffffffffff1673ffffffffffffffffffffffffffffffffffffffff16815260200190815260200160002060009054906101000a900473ffffffffffffffffffffffffffffffffffffffff1690508073ffffffffffffffffffffffffffffffffffffffff166319165587600d60019054906101000a900473ffffffffffffffffffffffffffffffffffffffff166040518263ffffffff167c0100000000000000000000000000000000000000000000000000000000028152600401808273ffffffffffffffffffffffffffffffffffffffff1673ffffffffffffffffffffffffffffffffffffffff168152602001915050600060405180830381600087803b158015620019c757600080fd5b505af1158015620019dc573d6000803e3d6000fd5b5050505062001a3982620019f084620016c4565b600d60019054906101000a900473ffffffffffffffffffffffffffffffffffffffff1673ffffffffffffffffffffffffffffffffffffffff16620021d99092919063ffffffff16565b5050565b600c5481565b60008060009054906101000a900473ffffffffffffffffffffffffffffffffffffffff1673ffffffffffffffffffffffffffffffffffffffff163373ffffffffffffffffffffffffffffffffffffffff1614151562001aa157600080fd5b600090505b815181101562001ae15762001ad3828281518110151562001ac357fe5b9060200190602002015162001317565b808060010191505062001aa6565b5050565b60036020528060005260406000206000915054906101000a900473ffffffffffffffffffffffffffffffffffffffff1681565b6000809054906101000a900473ffffffffffffffffffffffffffffffffffffffff1673ffffffffffffffffffffffffffffffffffffffff163373ffffffffffffffffffffffffffffffffffffffff1614151562001b7457600080fd5b62001b7f8162002321565b50565b60115481565b600d60019054906101000a900473ffffffffffffffffffffffffffffffffffffffff1681565b600a5481565b8162001bf6816040805190810160405280600981526020017f77686974656c697374000000000000000000000000000000000000000000000081525062000e00565b601354421015151562001c0857600080fd5b60125462001c228360105462001e1990919063ffffffff16565b1115151562001c3057600080fd5b600073ffffffffffffffffffffffffffffffffffffffff168373ffffffffffffffffffffffffffffffffffffffff161415151562001c6d57600080fd5b6000821415151562001c7e57600080fd5b505050565b60006005548211801562001c98575060065482105b1562001cbc5762001cb760056003846200241c9092919063ffffffff16565b820190505b6006548211801562001ccf575060075482105b1562001cf35762001cee600a6003846200241c9092919063ffffffff16565b820190505b6007548211801562001d06575060085482105b1562001d2a5762001d25600f6003846200241c9092919063ffffffff16565b820190505b6008548211801562001d3d575060095482105b1562001da65762001d5c60146003846200241c9092919063ffffffff16565b820190506001600260008573ffffffffffffffffffffffffffffffffffffffff1673ffffffffffffffffffffffffffffffffffffffff168152602001908152602001600020819055505b60095482111562001e135762001dca601e6003846200241c9092919063ffffffff16565b8201905060028060008573ffffffffffffffffffffffffffffffffffffffff1673ffffffffffffffffffffffffffffffffffffffff168152602001908152602001600020819055505b92915050565b6000818301905082811015151562001e2d57fe5b80905092915050565b62001e4282826200245a565b5050565b600e60009054906101000a900473ffffffffffffffffffffffffffffffffffffffff1673ffffffffffffffffffffffffffffffffffffffff166108fc349081150290604051600060405180830381858888f1935050505015801562001eaf573d6000803e3d6000fd5b50565b62001ebe828262001ece565b151562001eca57600080fd5b5050565b60008260000160008373ffffffffffffffffffffffffffffffffffffffff1673ffffffffffffffffffffffffffffffffffffffff16815260200190815260200160002060009054906101000a900460ff16905092915050565b62001fa8826001836040518082805190602001908083835b60208310151562001f66578051825260208201915060208101905060208303925062001f3f565b6001836020036101000a0380198251168184511680821785525050505050509050019150509081526020016040518091039020620024fe90919063ffffffff16565b7fd211483f91fc6eff862467f8de606587a30c8fc9981056f051b897a418df803a8282604051808373ffffffffffffffffffffffffffffffffffffffff1673ffffffffffffffffffffffffffffffffffffffff16815260200180602001828103825283818151815260200191508051906020019080838360005b838110156200203f57808201518184015260208101905062002022565b50505050905090810190601f1680156200206d5780820380516001836020036101000a031916815260200191505b50935050505060405180910390a15050565b565b62002102826001836040518082805190602001908083835b602083101515620020c0578051825260208201915060208101905060208303925062002099565b6001836020036101000a03801982511681845116808217855250505050505090500191505090815260200160405180910390206200255c90919063ffffffff16565b7fbfec83d64eaa953f2708271a023ab9ee82057f8f3578d548c1a4ba0b5b7004898282604051808373ffffffffffffffffffffffffffffffffffffffff1673ffffffffffffffffffffffffffffffffffffffff16815260200180602001828103825283818151815260200191508051906020019080838360005b83811015620021995780820151818401526020810190506200217c565b50505050905090810190601f168015620021c75780820380516001836020036101000a031916815260200191505b50935050505060405180910390a15050565b8273ffffffffffffffffffffffffffffffffffffffff1663a9059cbb83836040518363ffffffff167c0100000000000000000000000000000000000000000000000000000000028152600401808373ffffffffffffffffffffffffffffffffffffffff1673ffffffffffffffffffffffffffffffffffffffff16815260200182815260200192505050602060405180830381600087803b1580156200227d57600080fd5b505af115801562002292573d6000803e3d6000fd5b505050506040513d6020811015620022a957600080fd5b81019080805190602001909291905050501515620022c657600080fd5b505050565b6000828211151515620022da57fe5b818303905092915050565b600080831415620022fa57600090506200231b565b81830290508183828115156200230c57fe5b041415156200231757fe5b8090505b92915050565b600073ffffffffffffffffffffffffffffffffffffffff168173ffffffffffffffffffffffffffffffffffffffff16141515156200235e57600080fd5b8073ffffffffffffffffffffffffffffffffffffffff166000809054906101000a900473ffffffffffffffffffffffffffffffffffffffff1673ffffffffffffffffffffffffffffffffffffffff167f8be0079c531659141344cd1fd0a4f28419497f9722a3daafe3b4186f6b6457e060405160405180910390a3806000806101000a81548173ffffffffffffffffffffffffffffffffffffffff021916908373ffffffffffffffffffffffffffffffffffffffff16021790555050565b600080600060018401600a0a86029150600a6005866064858115156200243e57fe5b0402018115156200244b57fe5b04905080925050509392505050565b6000600260008473ffffffffffffffffffffffffffffffffffffffff1673ffffffffffffffffffffffffffffffffffffffff168152602001908152602001600020549050620024aa8382620025ba565b620024f98383600d60019054906101000a900473ffffffffffffffffffffffffffffffffffffffff1673ffffffffffffffffffffffffffffffffffffffff16620021d99092919063ffffffff16565b505050565b60008260000160008373ffffffffffffffffffffffffffffffffffffffff1673ffffffffffffffffffffffffffffffffffffffff16815260200190815260200160002060006101000a81548160ff0219169083151502179055505050565b60018260000160008373ffffffffffffffffffffffffffffffffffffffff1673ffffffffffffffffffffffffffffffffffffffff16815260200190815260200160002060006101000a81548160ff0219169083151502179055505050565b604080519081016040528042815260200182815250600460008473ffffffffffffffffffffffffffffffffffffffff1673ffffffffffffffffffffffffffffffffffffffff16815260200190815260200160002060008201518160000155602082015181600101559050505050565b604051611107806200265583390190565b6040805190810160405280600081526020016000815250905600608060405234801561001057600080fd5b5060405160a0806111078339810180604052810190808051906020019092919080519060200190929190805190602001909291908051906020019092919080519060200190929190505050336000806101000a81548173ffffffffffffffffffffffffffffffffffffffff021916908373ffffffffffffffffffffffffffffffffffffffff160217905550600073ffffffffffffffffffffffffffffffffffffffff168573ffffffffffffffffffffffffffffffffffffffff16141515156100d757600080fd5b8183111515156100e657600080fd5b84600160006101000a81548173ffffffffffffffffffffffffffffffffffffffff021916908373ffffffffffffffffffffffffffffffffffffffff16021790555080600560006101000a81548160ff02191690831515021790555081600481905550610168838561017f64010000000002610cdf179091906401000000009004565b60028190555083600381905550505050505061019b565b6000818301905082811015151561019257fe5b80905092915050565b610f5d806101aa6000396000f3006080604052600436106100d0576000357c0100000000000000000000000000000000000000000000000000000000900463ffffffff1680630fb5a6b4146100d557806313d033c0146101005780631726cbc81461012b5780631916558714610182578063384711cc146101c557806338af3eed1461021c578063715018a61461027357806374a8f1031461028a578063872a7810146102cd5780638da5cb5b146102fc5780639852595c14610353578063be9a6555146103aa578063f2fde38b146103d5578063fa01dc0614610418575b600080fd5b3480156100e157600080fd5b506100ea610473565b6040518082815260200191505060405180910390f35b34801561010c57600080fd5b50610115610479565b6040518082815260200191505060405180910390f35b34801561013757600080fd5b5061016c600480360381019080803573ffffffffffffffffffffffffffffffffffffffff16906020019092919050505061047f565b6040518082815260200191505060405180910390f35b34801561018e57600080fd5b506101c3600480360381019080803573ffffffffffffffffffffffffffffffffffffffff1690602001909291905050506104e2565b005b3480156101d157600080fd5b50610206600480360381019080803573ffffffffffffffffffffffffffffffffffffffff16906020019092919050505061061b565b6040518082815260200191505060405180910390f35b34801561022857600080fd5b5061023161081f565b604051808273ffffffffffffffffffffffffffffffffffffffff1673ffffffffffffffffffffffffffffffffffffffff16815260200191505060405180910390f35b34801561027f57600080fd5b50610288610845565b005b34801561029657600080fd5b506102cb600480360381019080803573ffffffffffffffffffffffffffffffffffffffff169060200190929190505050610947565b005b3480156102d957600080fd5b506102e2610be9565b604051808215151515815260200191505060405180910390f35b34801561030857600080fd5b50610311610bfc565b604051808273ffffffffffffffffffffffffffffffffffffffff1673ffffffffffffffffffffffffffffffffffffffff16815260200191505060405180910390f35b34801561035f57600080fd5b50610394600480360381019080803573ffffffffffffffffffffffffffffffffffffffff169060200190929190505050610c21565b6040518082815260200191505060405180910390f35b3480156103b657600080fd5b506103bf610c39565b6040518082815260200191505060405180910390f35b3480156103e157600080fd5b50610416600480360381019080803573ffffffffffffffffffffffffffffffffffffffff169060200190929190505050610c3f565b005b34801561042457600080fd5b50610459600480360381019080803573ffffffffffffffffffffffffffffffffffffffff169060200190929190505050610ca6565b604051808215151515815260200191505060405180910390f35b60045481565b60025481565b60006104db600660008473ffffffffffffffffffffffffffffffffffffffff1673ffffffffffffffffffffffffffffffffffffffff168152602001908152602001600020546104cd8461061b565b610cc690919063ffffffff16565b9050919050565b60006104ed8261047f565b90506000811115156104fe57600080fd5b61055081600660008573ffffffffffffffffffffffffffffffffffffffff1673ffffffffffffffffffffffffffffffffffffffff16815260200190815260200160002054610cdf90919063ffffffff16565b600660008473ffffffffffffffffffffffffffffffffffffffff1673ffffffffffffffffffffffffffffffffffffffff168152602001908152602001600020819055506105e0600160009054906101000a900473ffffffffffffffffffffffffffffffffffffffff16828473ffffffffffffffffffffffffffffffffffffffff16610cfb9092919063ffffffff16565b7ffb81f9b30d73d830c3544b34d827c08142579ee75710b490bab0b3995468c565816040518082815260200191505060405180910390a15050565b60008060008373ffffffffffffffffffffffffffffffffffffffff166370a08231306040518263ffffffff167c0100000000000000000000000000000000000000000000000000000000028152600401808273ffffffffffffffffffffffffffffffffffffffff1673ffffffffffffffffffffffffffffffffffffffff168152602001915050602060405180830381600087803b1580156106bb57600080fd5b505af11580156106cf573d6000803e3d6000fd5b505050506040513d60208110156106e557600080fd5b8101908080519060200190929190505050915061074a600660008673ffffffffffffffffffffffffffffffffffffffff1673ffffffffffffffffffffffffffffffffffffffff1681526020019081526020016000205483610cdf90919063ffffffff16565b905060025442101561075f5760009250610818565b610776600454600354610cdf90919063ffffffff16565b421015806107cd5750600760008573ffffffffffffffffffffffffffffffffffffffff1673ffffffffffffffffffffffffffffffffffffffff16815260200190815260200160002060009054906101000a900460ff165b156107da57809250610818565b6108156004546108076107f860035442610cc690919063ffffffff16565b84610de990919063ffffffff16565b610e2190919063ffffffff16565b92505b5050919050565b600160009054906101000a900473ffffffffffffffffffffffffffffffffffffffff1681565b6000809054906101000a900473ffffffffffffffffffffffffffffffffffffffff1673ffffffffffffffffffffffffffffffffffffffff163373ffffffffffffffffffffffffffffffffffffffff161415156108a057600080fd5b6000809054906101000a900473ffffffffffffffffffffffffffffffffffffffff1673ffffffffffffffffffffffffffffffffffffffff167ff8df31144d9c2f0f6b59d69b8b98abd5459d07f2742c4df920b25aae33c6482060405160405180910390a260008060006101000a81548173ffffffffffffffffffffffffffffffffffffffff021916908373ffffffffffffffffffffffffffffffffffffffff160217905550565b60008060008060009054906101000a900473ffffffffffffffffffffffffffffffffffffffff1673ffffffffffffffffffffffffffffffffffffffff163373ffffffffffffffffffffffffffffffffffffffff161415156109a757600080fd5b600560009054906101000a900460ff1615156109c257600080fd5b600760008573ffffffffffffffffffffffffffffffffffffffff1673ffffffffffffffffffffffffffffffffffffffff16815260200190815260200160002060009054906101000a900460ff16151515610a1b57600080fd5b8373ffffffffffffffffffffffffffffffffffffffff166370a08231306040518263ffffffff167c0100000000000000000000000000000000000000000000000000000000028152600401808273ffffffffffffffffffffffffffffffffffffffff1673ffffffffffffffffffffffffffffffffffffffff168152602001915050602060405180830381600087803b158015610ab657600080fd5b505af1158015610aca573d6000803e3d6000fd5b505050506040513d6020811015610ae057600080fd5b81019080805190602001909291905050509250610afc8461047f565b9150610b118284610cc690919063ffffffff16565b90506001600760008673ffffffffffffffffffffffffffffffffffffffff1673ffffffffffffffffffffffffffffffffffffffff16815260200190815260200160002060006101000a81548160ff021916908315150217905550610bb76000809054906101000a900473ffffffffffffffffffffffffffffffffffffffff16828673ffffffffffffffffffffffffffffffffffffffff16610cfb9092919063ffffffff16565b7f44825a4b2df8acb19ce4e1afba9aa850c8b65cdb7942e2078f27d0b0960efee660405160405180910390a150505050565b600560009054906101000a900460ff1681565b6000809054906101000a900473ffffffffffffffffffffffffffffffffffffffff1681565b60066020528060005260406000206000915090505481565b60035481565b6000809054906101000a900473ffffffffffffffffffffffffffffffffffffffff1673ffffffffffffffffffffffffffffffffffffffff163373ffffffffffffffffffffffffffffffffffffffff16141515610c9a57600080fd5b610ca381610e37565b50565b60076020528060005260406000206000915054906101000a900460ff1681565b6000828211151515610cd457fe5b818303905092915050565b60008183019050828110151515610cf257fe5b80905092915050565b8273ffffffffffffffffffffffffffffffffffffffff1663a9059cbb83836040518363ffffffff167c0100000000000000000000000000000000000000000000000000000000028152600401808373ffffffffffffffffffffffffffffffffffffffff1673ffffffffffffffffffffffffffffffffffffffff16815260200182815260200192505050602060405180830381600087803b158015610d9e57600080fd5b505af1158015610db2573d6000803e3d6000fd5b505050506040513d6020811015610dc857600080fd5b81019080805190602001909291905050501515610de457600080fd5b505050565b600080831415610dfc5760009050610e1b565b8183029050818382811515610e0d57fe5b04141515610e1757fe5b8090505b92915050565b60008183811515610e2e57fe5b04905092915050565b600073ffffffffffffffffffffffffffffffffffffffff168173ffffffffffffffffffffffffffffffffffffffff1614151515610e7357600080fd5b8073ffffffffffffffffffffffffffffffffffffffff166000809054906101000a900473ffffffffffffffffffffffffffffffffffffffff1673ffffffffffffffffffffffffffffffffffffffff167f8be0079c531659141344cd1fd0a4f28419497f9722a3daafe3b4186f6b6457e060405160405180910390a3806000806101000a81548173ffffffffffffffffffffffffffffffffffffffff021916908373ffffffffffffffffffffffffffffffffffffffff160217905550505600a165627a7a72305820ed9bb0053db7ca63e6435c156e5d0f71379098fd0293d52757a9f9d72bb4cb3b0029a165627a7a7230582049fe51dc955e6f19931e2a71176ad294ab98d18aca5b67eef9a9e7ee088af34e0029",
  "source": "pragma solidity ^0.4.24;\n\nimport \"openzeppelin-solidity/contracts/token/ERC20/SafeERC20.sol\";\nimport \"./Percent.sol\";\nimport \"./Token.sol\";\nimport \"./Whitelist.sol\";\nimport \"./TokenVesting.sol\";\n\n/**\n * @title Crowdsale\n * @dev Crowdsale is a base contract for managing a token crowdsale,\n * allowing investors to purchase tokens with ether. This contract implements\n * such functionality in its most fundamental form and can be extended to provide additional\n * functionality and/or custom behavior.\n * The external interface represents the basic interface for purchasing tokens, and conform\n * the base architecture for crowdsales. They are *not* intended to be modified / overriden.\n * The internal interface conforms the extensible and modifiable surface of crowdsales. Override\n * the methods to add functionality. Consider using 'super' where appropiate to concatenate\n * behavior.\n */\ncontract Crowdsale is Whitelist {\n  using SafeMath for uint256;\n  using Percent for uint256;\n  using SafeERC20 for Token;\n\n  struct RewardReceiver {\n    uint256 time;\n    uint256 reward;\n  }\n\n  mapping (address => uint256) public tokenRewards;\n  mapping (address => TokenVesting) public vesting;\n  mapping (address => RewardReceiver) public rewardReceivers;\n  \n  uint256 public USD_50K = 971911700000000000;\n  uint256 public USD_150K = 291573500000000000000;\n  uint256 public USD_250K = 485955800000000000000;\n  uint256 public USD_500K = 971911700000000000000;\n  uint256 public USD_1KK = 1943823500000000000000;\n\n  uint256 public PERIOD_1Y = 31556926; \n  uint256 public PERIOD_9M = 23667695;\n  uint256 public PERIOD_3M = 7889231;\n\n  bool public isFinalized = false;\n\n  Token public token;\n  \n  address public wallet;\n  uint256 public rate;\n  uint256 public weiRaised;\n  uint256 public hardCap;\n  uint256 public softCap;\n  uint256 public startTime;\n  uint256 public endTime;\n\n\n  /**\n   * Event for token purchase logging\n   * @param purchaser who paid for the tokens\n   * @param beneficiary who got the tokens\n   * @param value weis paid for purchase\n   * @param amount amount of tokens purchased\n   */\n  event TokenPurchase(\n    address indexed purchaser,\n    address indexed beneficiary,\n    uint256 value,\n    uint256 amount\n  );\n\n\n  event Finalized();\n\n\n  /**\n   * Event for creation of token vesting contract\n   * @param beneficiary who will receive tokens \n   * @param start time of vesting start\n   * @param cliff duration of cliff period\n   * @param duration total vesting period duration\n   * @param revocable specifies if vesting contract has abitility to revoke\n   */\n  event TimeVestingCreation\n  (\n    address beneficiary,\n    uint256 start,\n    uint256 cliff,\n    uint256 duration,\n    bool revocable\n  );\n\n\n  /**\n   * @param _rate Number of token units a buyer gets per wei\n   * @param _wallet Address where collected funds will be forwarded to\n   * @param _token Address of the token being sold\n   */\n  constructor(\n    uint256 _rate, \n    address _wallet, \n    Token _token,\n    uint256 _softCap,\n    uint256 _hardCap,\n    uint256 _startTime,\n    uint256 _endTime\n  ) \n    public \n  {\n    require(_rate > 0);\n    require(_wallet != address(0));\n    require(_token != address(0));\n    require(_hardCap > 0);\n    require(_softCap > 0);\n    require(_startTime > 0);\n    require(_endTime > _startTime);\n\n    rate = _rate;\n    wallet = _wallet;\n    token = _token;\n    hardCap = _hardCap;\n    softCap = _softCap;\n    startTime = _startTime;\n    endTime = _endTime;\n  }\n\n\n  // -----------------------------------------\n  // Crowdsale external interface\n  // -----------------------------------------\n  /**\n   * @dev function for buying tokens\n   */\n  function() \n    external \n    payable \n  {\n    buyTokens(msg.sender, msg.value);\n  }\n\n  /**\n   * @dev check if soft cap reached\n   */\n  function softCapReached() public view returns (bool) {\n    return weiRaised >= softCap;\n  }\n\n\n  /**\n   * @dev check if hard cap reached\n   */\n  modifier hardCapNotReached() {\n    require(\n      weiRaised < hardCap,\n      \"Hard cap is reached\"\n    );\n    _;\n  }\n\n\n  modifier isRewardReceiver(address _receiver) {\n    require(tokenRewards[_receiver] > 0);\n    _;\n  }\n\n\n  modifier respectContribution() {\n    require(msg.value >= USD_50K);\n    _;\n  }\n\n\n  function hasClosed() public view returns (bool) {\n    return block.timestamp > endTime;\n  }\n\n\n  modifier onlyWhileOpen {\n    require(block.timestamp >= startTime);\n    _;\n  }\n\n\n  /**\n   * @dev low level token purchase ***DO NOT OVERRIDE***\n   * @param _beneficiary Address performing the token purchase\n   */\n  function buyTokens(address _beneficiary, uint256 _amount)\n   public \n   payable \n   hardCapNotReached\n  {\n    uint256 weiAmount = _amount;\n    _preValidatePurchase(_beneficiary, weiAmount);\n\n    // calculate token amount to be created\n    uint256 tokens = _getTokenAmount(msg.sender, weiAmount);\n\n    // update state\n    weiRaised = weiRaised.add(weiAmount);\n\n    _processPurchase(_beneficiary, tokens);\n\n    emit TokenPurchase(\n      msg.sender,\n      _beneficiary,\n      weiAmount,\n      tokens\n    );\n\n    //_updatePurchasingState(_beneficiary, weiAmount);\n    _forwardFunds();\n    //_postValidatePurchase(_beneficiary, weiAmount);\n  }\n\n\n  // -----------------------------------------\n  // Internal interface (extensible)\n  // -----------------------------------------\n  /**\n   * @dev Validation of an incoming purchase. Use require statements to revert state when conditions are not met. Use super to concatenate validations.\n   * @param _beneficiary Address performing the token purchase\n   * @param _weiAmount Value in wei involved in the purchase\n   */\n  function _preValidatePurchase(\n    address _beneficiary,\n    uint256 _weiAmount\n  )\n    onlyIfWhitelisted(_beneficiary)\n    onlyWhileOpen\n    view\n    internal\n  {\n    require(weiRaised.add(_weiAmount) <= softCap);\n    require(_beneficiary != address(0));\n    require(_weiAmount != 0);\n  }\n\n\n  /**\n   * @dev Validation of an executed purchase. Observe state and use revert statements to undo rollback when valid conditions are not met.\n   * @param _beneficiary Address performing the token purchase\n   * @param _weiAmount Value in wei involved in the purchase\n   */\n  function _postValidatePurchase(\n    address _beneficiary,\n    uint256 _weiAmount\n  )\n    pure\n    internal\n  {\n    // optional override\n  }\n\n\n  /**\n   * @dev Create vesting contract\n   * @param _beneficiary address of person who will get all tokens as vesting ends\n   * @param _tokens amount of vested tokens\n   * @param _cliff duration of cliff period\n   * @param _duration total vesting period duration \n   */\n  function createTimeBasedVesting\n  (\n    address _beneficiary,\n    uint256 _tokens,\n    uint256 _cliff,\n    uint256 _duration\n  )\n  {\n    require(_beneficiary != 0x0);\n    require(_tokens > 0);\n\n    uint256 _start = block.timestamp;\n    vesting[_beneficiary] = new TokenVesting(_beneficiary, _start, _cliff, _duration, false);\n\n    token.safeTransfer(vesting[_beneficiary], _tokens);\n\n    emit TimeVestingCreation(_beneficiary, _start, _cliff, _duration, false);\n  }\n\n\n  /**\n   * @dev Adding contributor to the list of reward receivers\n   * @param _beneficiary address of reward receiver\n   * @param _reward amount of reward tokens\n   */\n  function addRewardReceiver\n  (\n    address _beneficiary,\n    uint256 _reward\n  ) \n    internal\n  {\n    rewardReceivers[_beneficiary] = RewardReceiver\n    (\n      block.timestamp,\n       _reward\n    );\n  }\n\n\n  /**\n   * @dev Release token timely reward to beneficiary\n   * @param _receiver address of person who will receive reward\n   */\n  function getReward\n  (\n    address _receiver\n  ) \n    public\n    isRewardReceiver(_receiver)\n    returns(uint256 _rewardToTransfer)\n  {\n    RewardReceiver memory _reward = rewardReceivers[_receiver];\n    uint256 _passedTime = block.timestamp.sub(_reward.time);\n    _rewardToTransfer = 0;\n\n    if (_passedTime > PERIOD_1Y && _passedTime < PERIOD_1Y.mul(2)) {\n      _rewardToTransfer = _reward.reward;\n    }\n    if (_passedTime > PERIOD_1Y.mul(2) && _passedTime < PERIOD_1Y.mul(3)) {\n      _rewardToTransfer = _reward.reward.mul(2);\n    }\n    if (_passedTime > PERIOD_1Y.mul(3)) {\n      _rewardToTransfer = _reward.reward.mul(3);\n    }\n\n    return _rewardToTransfer;\n  }\n\n\n  /** \n   * @dev Release tokens from vesting contract\n   * @param _beneficiary address of the contacts beneficiary\n   */\n  function releaseVestedTokens\n  (\n    address _beneficiary\n  ) \n    public\n  {\n    require(_beneficiary != 0x0);\n\n    TokenVesting tokenVesting = vesting[_beneficiary];\n    tokenVesting.release(token);\n\n    token.safeTransfer(_beneficiary, getReward(_beneficiary));\n  }\n\n\n  /**\n   * @dev Source of tokens. Override this method to modify the way in which the crowdsale ultimately gets and sends its tokens.\n   * @param _beneficiary Address performing the token purchase\n   * @param _tokenAmount Number of tokens to be emitted\n   */\n  function _deliverTokens(\n    address _beneficiary,\n    uint256 _tokenAmount\n  )\n    internal\n  {\n    uint256 _tokenBonus = tokenRewards[_beneficiary];\n    addRewardReceiver(_beneficiary, _tokenBonus);\n    token.safeTransfer(_beneficiary, _tokenAmount);\n  }\n\n\n  /**\n   * @dev Executed when a purchase has been validated and is ready to be executed. Not necessarily emits/sends tokens.\n   * @param _beneficiary Address receiving the tokens\n   * @param _tokenAmount Number of tokens to be purchased\n   */\n  function _processPurchase(\n    address _beneficiary,\n    uint256 _tokenAmount\n  )\n    internal\n  {\n    _deliverTokens(_beneficiary, _tokenAmount);\n  }\n\n\n  /**\n   * @dev Override for extensions that require an internal state to check for validity (current user contributions, etc.)\n   * @param _beneficiary Address receiving the tokens\n   * @param _weiAmount Value in wei involved in the purchase\n   */\n  function _updatePurchasingState(\n    address _beneficiary,\n    uint256 _weiAmount\n  )\n    pure\n    internal\n  {\n    // optional override\n  }\n\n\n  /**\n   * @dev Override to extend the way in which ether is converted to tokens.\n   * @param _weiAmount Value in wei to be converted into tokens\n   * @return Number of tokens that can be purchased with the specified _weiAmount\n   */\n  function _getTokenAmount\n  (\n    address _beneficiary,\n    uint256 _weiAmount\n  )\n    internal\n    returns (uint256 purchasedAmount)\n  {\n    if (_weiAmount > USD_50K && _weiAmount < USD_150K) {\n      purchasedAmount = _weiAmount + _weiAmount.perc(5, 3);\n    }\n    if (_weiAmount > USD_150K && _weiAmount < USD_250K) {\n      purchasedAmount = _weiAmount + _weiAmount.perc(10, 3);\n    }\n    if (_weiAmount > USD_250K && _weiAmount < USD_500K) {\n      purchasedAmount = _weiAmount + _weiAmount.perc(15, 3);\n    }\n    if (_weiAmount > USD_500K && _weiAmount < USD_1KK) {\n      purchasedAmount = _weiAmount + _weiAmount.perc(20, 3);\n      tokenRewards[_beneficiary] = 1;\n    }\n    if (_weiAmount > USD_1KK) {\n      purchasedAmount = _weiAmount + _weiAmount.perc(30, 3);\n      tokenRewards[_beneficiary] = 2;\n    }\n  }\n\n\n  /**\n   * @dev Determines how ETH is stored/forwarded on purchases.\n   */\n  function _forwardFunds() internal {\n    wallet.transfer(msg.value);\n  }\n\n\n   /**\n   * @dev Must be called after crowdsale ends, to do some extra finalization\n   * work. Calls the contract's finalization function.\n   */\n  function finalize() onlyOwner public {\n    require(!isFinalized);\n    require(hasClosed());\n\n    finalization();\n    emit Finalized();\n\n    isFinalized = true;\n  } \n\n\n  /**\n   * @dev Can be overridden to add finalization logic. The overriding function\n   * should call super.finalization() to ensure the chain of finalization is\n   * executed entirely.\n   */\n  function finalization() pure internal {}\n}",
  "sourcePath": "/Users/el3ktron/Desktop/ironx-crowdsale/contracts/Crowdsale.sol",
  "compiler": {
    "name": "solc",
    "version": "0.4.24+commit.e67f0147.Emscripten.clang"
  },
  "schemaVersion": "2.0.1",
  "updatedAt": "2018-07-03T19:28:57.693Z"
}