{
  "contractName": "TokenVesting",
  "abi": [
    {
      "constant": true,
      "inputs": [],
      "name": "creator",
      "outputs": [
        {
          "name": "",
          "type": "address"
        }
      ],
      "payable": false,
      "stateMutability": "view",
      "type": "function"
    },
    {
      "constant": true,
      "inputs": [],
      "name": "duration",
      "outputs": [
        {
          "name": "",
          "type": "uint256"
        }
      ],
      "payable": false,
      "stateMutability": "view",
      "type": "function"
    },
    {
      "constant": true,
      "inputs": [],
      "name": "cliff",
      "outputs": [
        {
          "name": "",
          "type": "uint256"
        }
      ],
      "payable": false,
      "stateMutability": "view",
      "type": "function"
    },
    {
      "constant": true,
      "inputs": [],
      "name": "revocable",
      "outputs": [
        {
          "name": "",
          "type": "bool"
        }
      ],
      "payable": false,
      "stateMutability": "view",
      "type": "function"
    },
    {
      "constant": true,
      "inputs": [],
      "name": "owner",
      "outputs": [
        {
          "name": "",
          "type": "address"
        }
      ],
      "payable": false,
      "stateMutability": "view",
      "type": "function"
    },
    {
      "constant": true,
      "inputs": [
        {
          "name": "",
          "type": "address"
        }
      ],
      "name": "released",
      "outputs": [
        {
          "name": "",
          "type": "uint256"
        }
      ],
      "payable": false,
      "stateMutability": "view",
      "type": "function"
    },
    {
      "constant": true,
      "inputs": [],
      "name": "start",
      "outputs": [
        {
          "name": "",
          "type": "uint256"
        }
      ],
      "payable": false,
      "stateMutability": "view",
      "type": "function"
    },
    {
      "constant": false,
      "inputs": [
        {
          "name": "newOwner",
          "type": "address"
        }
      ],
      "name": "transferOwnership",
      "outputs": [],
      "payable": false,
      "stateMutability": "nonpayable",
      "type": "function"
    },
    {
      "constant": true,
      "inputs": [
        {
          "name": "",
          "type": "address"
        }
      ],
      "name": "revoked",
      "outputs": [
        {
          "name": "",
          "type": "bool"
        }
      ],
      "payable": false,
      "stateMutability": "view",
      "type": "function"
    },
    {
      "inputs": [
        {
          "name": "_creator",
          "type": "address"
        },
        {
          "name": "_owner",
          "type": "address"
        },
        {
          "name": "_start",
          "type": "uint256"
        },
        {
          "name": "_cliff",
          "type": "uint256"
        },
        {
          "name": "_duration",
          "type": "uint256"
        },
        {
          "name": "_revocable",
          "type": "bool"
        }
      ],
      "payable": false,
      "stateMutability": "nonpayable",
      "type": "constructor"
    },
    {
      "payable": true,
      "stateMutability": "payable",
      "type": "fallback"
    },
    {
      "anonymous": false,
      "inputs": [
        {
          "indexed": true,
          "name": "sender",
          "type": "address"
        },
        {
          "indexed": false,
          "name": "amount",
          "type": "uint256"
        }
      ],
      "name": "Received",
      "type": "event"
    },
    {
      "anonymous": false,
      "inputs": [
        {
          "indexed": false,
          "name": "amount",
          "type": "uint256"
        }
      ],
      "name": "Released",
      "type": "event"
    },
    {
      "anonymous": false,
      "inputs": [],
      "name": "Revoked",
      "type": "event"
    },
    {
      "anonymous": false,
      "inputs": [
        {
          "indexed": true,
          "name": "previousOwner",
          "type": "address"
        },
        {
          "indexed": true,
          "name": "newOwner",
          "type": "address"
        }
      ],
      "name": "OwnershipTransferred",
      "type": "event"
    },
    {
      "constant": false,
      "inputs": [
        {
          "name": "token",
          "type": "address"
        }
      ],
      "name": "release",
      "outputs": [],
      "payable": false,
      "stateMutability": "nonpayable",
      "type": "function"
    },
    {
      "constant": false,
      "inputs": [
        {
          "name": "token",
          "type": "address"
        }
      ],
      "name": "revoke",
      "outputs": [],
      "payable": false,
      "stateMutability": "nonpayable",
      "type": "function"
    },
    {
      "constant": true,
      "inputs": [
        {
          "name": "token",
          "type": "address"
        }
      ],
      "name": "releasableAmount",
      "outputs": [
        {
          "name": "",
          "type": "uint256"
        }
      ],
      "payable": false,
      "stateMutability": "view",
      "type": "function"
    },
    {
      "constant": true,
      "inputs": [
        {
          "name": "token",
          "type": "address"
        }
      ],
      "name": "vestedAmount",
      "outputs": [
        {
          "name": "",
          "type": "uint256"
        }
      ],
      "payable": false,
      "stateMutability": "view",
      "type": "function"
    }
  ],
  "bytecode": "0x608060405234801561001057600080fd5b5060405160c08061107b833981018060405281019080805190602001909291908051906020019092919080519060200190929190805190602001909291908051906020019092919080519060200190929190505050336000806101000a81548173ffffffffffffffffffffffffffffffffffffffff021916908373ffffffffffffffffffffffffffffffffffffffff160217905550600073ffffffffffffffffffffffffffffffffffffffff168573ffffffffffffffffffffffffffffffffffffffff16141515156100e157600080fd5b8183111515156100f057600080fd5b85600160006101000a81548173ffffffffffffffffffffffffffffffffffffffff021916908373ffffffffffffffffffffffffffffffffffffffff16021790555084600260006101000a81548173ffffffffffffffffffffffffffffffffffffffff021916908373ffffffffffffffffffffffffffffffffffffffff16021790555080600660006101000a81548160ff021916908315150217905550816005819055506101b383856101cb64010000000002610cf8179091906401000000009004565b600381905550836004819055505050505050506101e9565b60008082840190508381101515156101df57fe5b8091505092915050565b610e83806101f86000396000f3006080604052600436106100c5576000357c0100000000000000000000000000000000000000000000000000000000900463ffffffff16806302d05d3f146101155780630fb5a6b41461016c57806313d033c0146101975780631726cbc8146101c25780631916558714610219578063384711cc1461025c57806374a8f103146102b3578063872a7810146102f65780638da5cb5b146103255780639852595c1461037c578063be9a6555146103d3578063f2fde38b146103fe578063fa01dc0614610441575b3373ffffffffffffffffffffffffffffffffffffffff167f88a5966d370b9919b20f3e2c13ff65706f196a4e32cc2c12bf57088f88525874346040518082815260200191505060405180910390a2005b34801561012157600080fd5b5061012a61049c565b604051808273ffffffffffffffffffffffffffffffffffffffff1673ffffffffffffffffffffffffffffffffffffffff16815260200191505060405180910390f35b34801561017857600080fd5b506101816104c2565b6040518082815260200191505060405180910390f35b3480156101a357600080fd5b506101ac6104c8565b6040518082815260200191505060405180910390f35b3480156101ce57600080fd5b50610203600480360381019080803573ffffffffffffffffffffffffffffffffffffffff1690602001909291905050506104ce565b6040518082815260200191505060405180910390f35b34801561022557600080fd5b5061025a600480360381019080803573ffffffffffffffffffffffffffffffffffffffff169060200190929190505050610531565b005b34801561026857600080fd5b5061029d600480360381019080803573ffffffffffffffffffffffffffffffffffffffff16906020019092919050505061066a565b6040518082815260200191505060405180910390f35b3480156102bf57600080fd5b506102f4600480360381019080803573ffffffffffffffffffffffffffffffffffffffff16906020019092919050505061086e565b005b34801561030257600080fd5b5061030b610b12565b604051808215151515815260200191505060405180910390f35b34801561033157600080fd5b5061033a610b25565b604051808273ffffffffffffffffffffffffffffffffffffffff1673ffffffffffffffffffffffffffffffffffffffff16815260200191505060405180910390f35b34801561038857600080fd5b506103bd600480360381019080803573ffffffffffffffffffffffffffffffffffffffff169060200190929190505050610b4b565b6040518082815260200191505060405180910390f35b3480156103df57600080fd5b506103e8610b63565b6040518082815260200191505060405180910390f35b34801561040a57600080fd5b5061043f600480360381019080803573ffffffffffffffffffffffffffffffffffffffff169060200190929190505050610b69565b005b34801561044d57600080fd5b50610482600480360381019080803573ffffffffffffffffffffffffffffffffffffffff169060200190929190505050610cbf565b604051808215151515815260200191505060405180910390f35b600160009054906101000a900473ffffffffffffffffffffffffffffffffffffffff1681565b60055481565b60035481565b600061052a600760008473ffffffffffffffffffffffffffffffffffffffff1673ffffffffffffffffffffffffffffffffffffffff1681526020019081526020016000205461051c8461066a565b610cdf90919063ffffffff16565b9050919050565b600061053c826104ce565b905060008111151561054d57600080fd5b61059f81600760008573ffffffffffffffffffffffffffffffffffffffff1673ffffffffffffffffffffffffffffffffffffffff16815260200190815260200160002054610cf890919063ffffffff16565b600760008473ffffffffffffffffffffffffffffffffffffffff1673ffffffffffffffffffffffffffffffffffffffff1681526020019081526020016000208190555061062f600260009054906101000a900473ffffffffffffffffffffffffffffffffffffffff16828473ffffffffffffffffffffffffffffffffffffffff16610d169092919063ffffffff16565b7ffb81f9b30d73d830c3544b34d827c08142579ee75710b490bab0b3995468c565816040518082815260200191505060405180910390a15050565b60008060008373ffffffffffffffffffffffffffffffffffffffff166370a08231306040518263ffffffff167c0100000000000000000000000000000000000000000000000000000000028152600401808273ffffffffffffffffffffffffffffffffffffffff1673ffffffffffffffffffffffffffffffffffffffff168152602001915050602060405180830381600087803b15801561070a57600080fd5b505af115801561071e573d6000803e3d6000fd5b505050506040513d602081101561073457600080fd5b81019080805190602001909291905050509150610799600760008673ffffffffffffffffffffffffffffffffffffffff1673ffffffffffffffffffffffffffffffffffffffff1681526020019081526020016000205483610cf890919063ffffffff16565b90506003544210156107ae5760009250610867565b6107c5600554600454610cf890919063ffffffff16565b4210158061081c5750600860008573ffffffffffffffffffffffffffffffffffffffff1673ffffffffffffffffffffffffffffffffffffffff16815260200190815260200160002060009054906101000a900460ff165b1561082957809250610867565b61086460055461085661084760045442610cdf90919063ffffffff16565b84610e0190919063ffffffff16565b610e3c90919063ffffffff16565b92505b5050919050565b6000806000600260009054906101000a900473ffffffffffffffffffffffffffffffffffffffff1673ffffffffffffffffffffffffffffffffffffffff163373ffffffffffffffffffffffffffffffffffffffff161415156108cf57600080fd5b600660009054906101000a900460ff1615156108ea57600080fd5b600860008573ffffffffffffffffffffffffffffffffffffffff1673ffffffffffffffffffffffffffffffffffffffff16815260200190815260200160002060009054906101000a900460ff1615151561094357600080fd5b8373ffffffffffffffffffffffffffffffffffffffff166370a08231306040518263ffffffff167c0100000000000000000000000000000000000000000000000000000000028152600401808273ffffffffffffffffffffffffffffffffffffffff1673ffffffffffffffffffffffffffffffffffffffff168152602001915050602060405180830381600087803b1580156109de57600080fd5b505af11580156109f2573d6000803e3d6000fd5b505050506040513d6020811015610a0857600080fd5b81019080805190602001909291905050509250610a24846104ce565b9150610a398284610cdf90919063ffffffff16565b90506001600860008673ffffffffffffffffffffffffffffffffffffffff1673ffffffffffffffffffffffffffffffffffffffff16815260200190815260200160002060006101000a81548160ff021916908315150217905550610ae0600260009054906101000a900473ffffffffffffffffffffffffffffffffffffffff16828673ffffffffffffffffffffffffffffffffffffffff16610d169092919063ffffffff16565b7f44825a4b2df8acb19ce4e1afba9aa850c8b65cdb7942e2078f27d0b0960efee660405160405180910390a150505050565b600660009054906101000a900460ff1681565b600260009054906101000a900473ffffffffffffffffffffffffffffffffffffffff1681565b60076020528060005260406000206000915090505481565b60045481565b600260009054906101000a900473ffffffffffffffffffffffffffffffffffffffff1673ffffffffffffffffffffffffffffffffffffffff163373ffffffffffffffffffffffffffffffffffffffff16141515610bc557600080fd5b600073ffffffffffffffffffffffffffffffffffffffff168173ffffffffffffffffffffffffffffffffffffffff1614151515610c0157600080fd5b8073ffffffffffffffffffffffffffffffffffffffff166000809054906101000a900473ffffffffffffffffffffffffffffffffffffffff1673ffffffffffffffffffffffffffffffffffffffff167f8be0079c531659141344cd1fd0a4f28419497f9722a3daafe3b4186f6b6457e060405160405180910390a3806000806101000a81548173ffffffffffffffffffffffffffffffffffffffff021916908373ffffffffffffffffffffffffffffffffffffffff16021790555050565b60086020528060005260406000206000915054906101000a900460ff1681565b6000828211151515610ced57fe5b818303905092915050565b6000808284019050838110151515610d0c57fe5b8091505092915050565b8273ffffffffffffffffffffffffffffffffffffffff1663a9059cbb83836040518363ffffffff167c0100000000000000000000000000000000000000000000000000000000028152600401808373ffffffffffffffffffffffffffffffffffffffff1673ffffffffffffffffffffffffffffffffffffffff16815260200182815260200192505050602060405180830381600087803b158015610db957600080fd5b505af1158015610dcd573d6000803e3d6000fd5b505050506040513d6020811015610de357600080fd5b81019080805190602001909291905050501515610dfc57fe5b505050565b6000806000841415610e165760009150610e35565b8284029050828482811515610e2757fe5b04141515610e3157fe5b8091505b5092915050565b6000808284811515610e4a57fe5b04905080915050929150505600a165627a7a72305820ae23a0019015047829b2cc3617db08e2f38f91bdaeec712b620627fac19addb50029",
  "source": "pragma solidity ^0.4.24;\n\nimport \"./Ownable.sol\";\nimport \"./SafeMath.sol\";\nimport \"./ERC20Basic.sol\";\nimport \"./SafeERC20.sol\";\n\n/**\n * @title TokenVesting\n * @dev A token holder contract that can release its token balance gradually like a\n * typical vesting scheme, with a cliff and vesting period. Optionally revocable by the\n * owner.\n */\ncontract TokenVesting is Ownable {\n  using SafeMath for uint256;\n  using SafeERC20 for ERC20Basic;\n\n  event Received(\n    address indexed sender, \n    uint256 amount);\n\n  event Released(uint256 amount);\n  \n  event Revoked();\n\n  // beneficiary of tokens after they are released\n  \n  address public creator;\n  address public owner;\n  uint256 public cliff;\n  uint256 public start;\n  uint256 public duration;\n\n  bool public revocable;\n\n  modifier onlyOwner {\n    require(msg.sender == owner);\n    _;\n  }\n\n  mapping (address => uint256) public released;\n  mapping (address => bool) public revoked;\n\n  /**\n   * @dev Creates a vesting contract that vests its balance of any ERC20 token to the\n   * _beneficiary, gradually in a linear fashion until _start + _duration. By then all\n   * of the balance will have vested.\n   * @param _cliff duration in seconds of the cliff in which tokens will begin to vest\n   * @param _duration duration in seconds of the period in which the tokens will vest\n   * @param _revocable whether the vesting is revocable or not\n   */\n  constructor (\n    address _creator,\n    address _owner, \n    uint256 _start, \n    uint256 _cliff, \n    uint256 _duration, \n    bool _revocable\n  ) \n    public \n  {\n    require(_owner != address(0));\n    require(_cliff <= _duration);\n\n    creator = _creator;\n    owner = _owner;\n    revocable = _revocable;\n    duration = _duration;\n    cliff = _start.add(_cliff);\n    start = _start;\n  }\n\n  function() payable public {\n    emit Received(msg.sender, msg.value);\n  }\n\n  /**\n   * @notice Transfers vested tokens to beneficiary.\n   * @param token ERC20 token which is being vested\n   */\n  function release(ERC20Basic token) public {\n    uint256 unreleased = releasableAmount(token);\n\n    require(unreleased > 0);\n\n    released[token] = released[token].add(unreleased);\n\n    token.safeTransfer(owner, unreleased);\n\n    emit Released(unreleased);\n  }\n\n  /**\n   * @notice Allows the owner to revoke the vesting. Tokens already vested\n   * remain in the contract, the rest are returned to the owner.\n   * @param token ERC20 token which is being vested\n   */\n  function revoke(ERC20Basic token) public onlyOwner {\n    require(revocable);\n    require(!revoked[token]);\n\n    uint256 balance = token.balanceOf(this);\n    uint256 unreleased = releasableAmount(token);\n    uint256 refund = balance.sub(unreleased);\n\n    revoked[token] = true;\n\n    token.safeTransfer(owner, refund);\n\n    emit Revoked();\n  }\n\n  /**\n   * @dev Calculates the amount that has already vested but hasn't been released yet.\n   * @param token ERC20 token which is being vested\n   */\n  function releasableAmount(ERC20Basic token) public view returns (uint256) {\n    return vestedAmount(token).sub(released[token]);\n  }\n\n  /**\n   * @dev Calculates the amount that has already vested.\n   * @param token ERC20 token which is being vested\n   */\n  function vestedAmount(ERC20Basic token) public view returns (uint256) {\n    uint256 currentBalance = token.balanceOf(this);\n    uint256 totalBalance = currentBalance.add(released[token]);\n\n    if (now < cliff) {\n      return 0;\n    } else if (now >= start.add(duration) || revoked[token]) {\n      return totalBalance;\n    } else {\n      return totalBalance.mul(now.sub(start)).div(duration);\n    }\n  }\n}",
  "sourcePath": "/Users/el3ktron/Desktop/test/contracts/TokenVesting.sol",
  "compiler": {
    "name": "solc",
    "version": "0.4.24+commit.e67f0147.Emscripten.clang"
  },
  "schemaVersion": "2.0.1",
  "updatedAt": "2018-07-02T20:21:55.048Z"
}